:02000002B0004C
:1040000000400B00F66D0B00000006000C000502DE
:084010000401B51400000000DA
:0440180020640B0015
:1040200081F0004102E000BF83F0004330B54FEA69
:1040300041044FEA430594EA050F08BF90EA020FD6
:104040001FBF54EA000C55EA020C7FEA645C7FEA69
:10405000655C00F0E2804FEA5454D4EB5555B8BF8C
:104060006D420CDD2C4480EA020281EA030382EAFD
:10407000000083EA010180EA020281EA0303362D8F
:1040800088BF30BD11F0004F4FEA01314FF4801C62
:104090004CEA113102D0404261EB410113F0004F74
:1040A0004FEA03334CEA133302D0524263EB43032B
:1040B00094EA050F00F0A780A4F10104D5F1200EC9
:1040C0000DDB02FA0EFC22FA05F2801841F1000124
:1040D00003FA0EF2801843FA05F359410EE0A5F1F8
:1040E00020050EF1200E012A03FA0EFC28BF4CF029
:1040F000020C43FA05F3C01851EBE37101F00045DF
:1041000007D54FF0000EDCF1000C7EEB00006EEBEB
:104110000101B1F5801F1BD3B1F5001F0CD3490875
:104120005FEA30004FEA3C0C04F101044FEA4452CC
:1041300012F5800F80F09A80BCF1004F08BF5FEA53
:10414000500C50F1000041EB045141EA050130BD33
:104150005FEA4C0C404141EB0101013C28BFB1F545
:10416000801FE9D291F0000F04BF01460020B1FA90
:1041700081F308BF2033A3F10B03B3F120020CDA63
:104180000C3208DD02F1140CC2F10C0201FA0CF041
:1041900021FA02F10CE002F11402D8BFC2F1200CA6
:1041A00001FA02F120FA0CFCDCBF41EA0C0190405C
:1041B000E41AA2BF01EB0451294330BD6FEA0404A5
:1041C0001F3C1CDA0C340EDC04F11404C4F1200290
:1041D00020FA04F001FA02F340EA030021FA04F3A2
:1041E00045EA030130BDC4F10C04C4F1200220FAF9
:1041F00002F001FA04F340EA0300294630BD21FA37
:1042000004F0294630BD94F0000F83F4801306BFFC
:1042100081F480110134013D4EE77FEA645C18BFF0
:104220007FEA655C29D094EA050F08BF90EA020F87
:1042300005D054EA000C04BF1946104630BD91EA7F
:10424000030F1EBF0021002030BD5FEA545C05D182
:104250004000494128BF41F0004130BD14F58004C1
:104260003CBF01F5801130BD01F0004545F0FE4135
:1042700041F470014FF0000030BD7FEA645C1ABF6A
:10428000194610467FEA655C1CBF0B46024650EAA1
:10429000013406BF52EA033591EA030F41F40021CD
:1042A00030BD00BF90F0000F04BF0021704730B553
:1042B0004FF4806404F132044FF000054FF0000128
:1042C00050E700BF90F0000F04BF0021704730B5E9
:1042D0004FF4806404F1320410F0004548BF4042BE
:1042E0004FF000013EE700BF42004FEAE2014FEA13
:1042F00031014FEA02701FBF12F07F4393F07F4FEE
:1043000081F06051704732F07F4208BF704793F0F0
:104310007F4F04BF41F40021704730B54FF4607403
:1043200001F0004521F000411CE700BF50EA010206
:1043300008BF704730B54FF000050AE050EA0102AF
:1043400008BF704730B511F0004502D5404261EB1F
:1043500041014FF4806404F132045FEA915C3FF460
:10436000D8AE4FF003025FEADC0C18BF03325FEAFD
:10437000DC0C18BF033202EBDC02C2F1200300FAAE
:1043800003FC20FA02F001FA03FE40EA0E0021FAD3
:1043900002F11444BDE600BF70B54FF0FF0C4CF4C1
:1043A000E06C1CEA11541DBF1CEA135594EA0C0F73
:1043B00095EA0C0F00F0DEF82C4481EA030621EAAE
:1043C0004C5123EA4C5350EA013518BF52EA0335E9
:1043D00041F4801143F4801338D0A0FB02CE4FF09B
:1043E0000005E1FB02E506F00042E0FB03E54FF0CB
:1043F0000006E1FB03569CF0000F18BF4EF0010EC3
:10440000A4F1FF04B6F5007F64F5407404D25FEABE
:104410004E0E6D4146EB060642EAC62141EA555171
:104420004FEAC52040EA5E504FEACE2EB4F1FD0CB3
:1044300088BFBCF5E06F1ED8BEF1004F08BF5FEA31
:10444000500E50F1000041EB045170BD06F00046E3
:1044500046EA010140EA020081EA0301B4EB5C0490
:10446000C2BFD4EB0C0541EA045170BD41F4801188
:104470004FF0000E013C00F3AB8014F1360FDEBFAD
:10448000002001F0004170BDC4F10004203C35DA89
:104490000C341BDC04F11404C4F1200500FA05F30C
:1044A00020FA04F001FA05F240EA020001F00042AD
:1044B00021F0004110EBD37021FA04F642EB060123
:1044C0005EEA430E08BF20EAD37070BDC4F10C044D
:1044D000C4F1200500FA04F320FA05F001FA04F211
:1044E00040EA020001F0004110EBD37041F10001FD
:1044F0005EEA430E08BF20EAD37070BDC4F1200508
:1045000000FA05F24EEA020E20FA04F301FA05F26F
:1045100043EA020321FA04F001F0004121FA04F217
:1045200020EA020000EBD3705EEA430E08BF20EAE7
:10453000D37070BD94F0000F0FD101F00046400021
:1045400041EB010111F4801F08BF013CF7D041EAA3
:10455000060195F0000F18BF704703F000465200A7
:1045600043EB030313F4801F08BF013DF7D043EA78
:104570000603704794EA0C0F0CEA135518BF95EA2E
:104580000C0F0CD050EA410618BF52EA4306D1D1B5
:1045900081EA030101F000414FF0000070BD50EAD4
:1045A000410606BF1046194652EA430619D094EA5E
:1045B0000C0F02D150EA013613D195EA0C0F05D148
:1045C00052EA03361CBF104619460AD181EA03019C
:1045D00001F0004141F0FE4141F470014FF0000054
:1045E00070BD41F0FE4141F4780170BD70B54FF0EF
:1045F000FF0C4CF4E06C1CEA11541DBF1CEA13556F
:1046000094EA0C0F95EA0C0F00F0A7F8A4EB050450
:1046100081EA030E52EA03354FEA013100F0888047
:104620004FEA03334FF0805545EA131343EA126310
:104630004FEA022245EA111545EA10654FEA0026C5
:104640000EF000419D4208BF964244F1FD0404F57E
:10465000407402D25B084FEA3202B61A65EB0305DA
:104660005B084FEA32024FF480104FF4002CB6EB97
:10467000020E75EB030E22BFB61A754640EA0C0017
:104680005B084FEA3202B6EB020E75EB030E22BF57
:10469000B61A754640EA5C005B084FEA3202B6EB98
:1046A000020E75EB030E22BFB61A754640EA9C0057
:1046B0005B084FEA3202B6EB020E75EB030E22BF27
:1046C000B61A754640EADC0055EA060E18D04FEAE5
:1046D000051545EA16754FEA06164FEAC30343EA85
:1046E00052734FEAC2025FEA1C1CC0D111F4801F52
:1046F0000BD141EA00014FF000004FF0004CB6E74B
:1047000011F4801F04BF01430020B4F1FD0C88BFE9
:10471000BCF5E06F3FF6AFAEB5EB030C04BFB6EBF4
:10472000020C5FEA500C50F1000041EB045170BDE7
:104730000EF0004E4EEA113114EB5C04C2BFD4EB14
:104740000C0541EA045170BD41F480114FF0000E98
:10475000013C90E645EA060E8DE60CEA135594EA14
:104760000C0F08BF95EA0C0F3FF43BAF94EA0C0F17
:104770000AD150EA01347FF434AF95EA0C0F7FF48C
:1047800025AF104619462CE795EA0C0F06D152EAE0
:1047900003353FF4FDAE1046194622E750EA4106C4
:1047A00018BF52EA43067FF4C5AE50EA41047FF4D5
:1047B0000DAF52EA43057FF4EBAE12E74FF0FF3C3A
:1047C00006E000BF4FF0010C02E000BF4FF0010C0B
:1047D0004DF804CD4FEA410C7FEA6C5C4FEA430C84
:1047E00018BF7FEA6C5C1BD001B050EA410C0CBFD3
:1047F00052EA430C91EA030F02BF90EA020F002035
:10480000704710F1000F91EA030F58BF994208BF9B
:1048100090422CBFD8176FEAE37040F00100704758
:104820004FEA410C7FEA6C5C02D150EA013C07D1AF
:104830004FEA430C7FEA6C5CD6D152EA033CD3D0FA
:104840005DF8040B704700BF8446104662468C46F4
:104850001946634600E000BF01B5FFF7B7FF002827
:1048600048BF10F1000F01BD4DF808EDFFF7F4FF50
:104870000CBF012000205DF808FB00BF4DF808EDDB
:10488000FFF7EAFF34BF012000205DF808FB00BFFE
:104890004DF808EDFFF7E0FF94BF012000205DF820
:1048A00008FB00BF4DF808EDFFF7CEFF94BF0120D5
:1048B00000205DF808FB00BF4DF808EDFFF7C4FFCE
:1048C00034BF012000205DF808FB00BF4FEA410C17
:1048D0007FEA6C5C02D150EA013C0AD14FEA430CFA
:1048E0007FEA6C5C02D152EA033C02D14FF0000037
:1048F00070474FF0010070474FEA410212F5001275
:1049000015D211D56FF47873B3EB625212D94FEA16
:10491000C12343F0004343EA505311F0004F23FA00
:1049200002F018BF404270474FF00000704750EA55
:10493000013005D111F0004008BF6FF00040704712
:104940004FF00000704700BF4A0011D212F500126C
:1049500011D20DD56FF47873B3EB62520ED44FEAD7
:10496000C12343F0004343EA505323FA02F0704757
:104970004FF00000704750EA013002D14FF0FF3095
:1049800070474FF0000070474FEA4102B2F1E04338
:1049900024BFB3F5001CDCF1FE5C0DD901F0004C26
:1049A0004FEAC0024CEA5070B2F1004F40EB830076
:1049B00008BF20F00100704711F0804F21D113F1A2
:1049C0003872BCBF01F00040704741F480114FEADB
:1049D0005252C2F11802C2F1200C10FA0CF320FA64
:1049E00002F018BF40F001004FEAC1234FEAD32381
:1049F00003FA0CFC40EA0C0023FA02F34FEA4303EB
:104A0000CCE77FEA625307D150EA01331EBF4FF073
:104A1000FE4040F44000704701F0004040F0FE408E
:104A200040F40000704700BF034613F8012B002A32
:104A3000FBD1181A0138704709480A49884208B55D
:104A400005D0094A824202D0121A01F03FFC074801
:104A5000074A0021121A01F047FC014808BD00BFB7
:104A60003CE603205C6D0B00A8E60320A8E60320CB
:104A7000F0E7032070B5074E074C01F06DFBA41B57
:104A8000A4080025AC4200D170BD56F8043B9847FD
:104A90000135F7E7146D0B00386D0B0000F014B80A
:104AA00008B500F043F8BDE8084001F00DBB00F088
:104AB00037BE00F03DBE0078B0FA80F04009704784
:104AC000012303707047000008B501F077FA4FF436
:104AD000E13101F067FA01F071FA104901F089F84B
:104AE00001F088FB00F0D0FE01F084FB602102465B
:104AF0000B4800F04FFA28B901F060FA094901F0BB
:104B00005EF8FEE700220648114600F079F9BDE89C
:104B100008409FED050A024800F082BC34640B0097
:104B2000A8E6032045640B000024744A10B58AB03F
:104B300005AA002404A941480494059400F052FAFF
:104B400001F03CFA3E4901F03AF801F037FA9DEDE8
:104B5000040A022101F036F901F030FA394901F076
:104B60002EF801F02BFA9DED050A022101F044F91F
:104B700007AA06A931480694079400F0D5FA01F077
:104B80001DFA314901F01BF801F018FA9DED060AF3
:104B9000022101F017F901F011FA2C4901F00FF888
:104BA00001F00CFA9DED070A022101F025F900231E
:104BB0008DF80E308DF80F300DF10F0309AA08A9FA
:104BC00000931E4808940DF10E03099400F07CFB3D
:104BD00001F0F4F91E4900F0F2FF01F0EFF99DED4C
:104BE000080A022101F0EEF801F0E8F9194900F095
:104BF000E6FF01F0E3F99DED090A022101F0E2F878
:104C00009DF80E308BB101F0D9F9134900F0D7FFB0
:104C10009DF80F306BB101F0D1F9104900F0E9FFB8
:104C2000FA2000F09DFD0AB010BD01F0C7F90C4953
:104C3000ECE701F0C3F90B49F0E700BFA8E6032059
:104C40008B640B0093640B009B640B00AF640B0040
:104C5000C1640B00D8640B00E8640B00FA640B001D
:104C6000F1640B0004650B00014800F027B800BF99
:104C7000A8E6032010B5044642B90268C9B292689A
:104C800090472046BDE8104000F09DBFD2B200F032
:104C9000B2FFF6E710B504463AB903689B68984737
:104CA0002046BDE8104000F08EBFD2B200F0A3FF56
:104CB000F6E70368C9B29B68184700004FF4C0428A
:104CC0000281034AC260034A0261034A426170479B
:104CD00000C028450024744A0000F0412DE9F0414D
:104CE00004460F46417A0068154600F0FFFD206833
:104CF000036829469B6898472068002100F0FAFD68
:104D0000064698B1237A1BB901263046BDE8F081EA
:104D10001D49606800F053FF64680A22314620464E
:104D200000F069FF204600F04EFFEDE7617A206851
:104D3000042200F0D8FDC5B2042D0AD0237A002B3E
:104D4000E2D01249606800F03AFF64680A222946FE
:104D5000E5E7206803685B69984780462068036838
:104D60005B6998470546206803685B6998470204B9
:104D7000206842EA052343EA080503685B6998470F
:104D800045EA00653D60C0E70F650B0038650B0024
:104D900070B504460D46417A0068164600F0A6FD3F
:104DA0002068036831469B689847E9B22068FFF79E
:104DB00080FFC5F307212068FFF77BFFC5F307419C
:104DC0002068FFF776FF290E2068FFF772FF206842
:104DD00000F094FD054678B1237A63B10749606815
:104DE00000F0EDFE64680A222946204600F003FF29
:104DF000204600F0E8FE0125284670BD5D650B00E9
:104E0000F7B50E4617463E492F220446FFF7C0FF6E
:104E1000054618B1237A9BB13A4909E01F2201A93E
:104E20002046FFF75BFF237A054660B143B1364960
:104E3000606800F0C4FE60680A222946FFF72AFF76
:104E4000284603B0F0BD5BB13049606800F0B7FEA2
:104E50009DF8071060680A2201F00101FFF70AFFC0
:104E60009DF8073066F300038DF8073001991F2283
:104E70002046FFF78DFF054620B1237A002BDFD0B7
:104E80002349D5E787B30F2201A92046FFF726FF64
:104E9000237A054618B1002BD2D01E49C8E75BB172
:104EA0001D49606800F08BFE9DF8071060680A22BB
:104EB00001F00101FFF7DEFE9DF8073066F3000305
:104EC0008DF8073001990F222046FFF761FF054654
:104ED00050B1237A43B11149606800F070FE6068F8
:104EE0000A222946FFF7D6FE2F2200212046FFF78F
:104EF0004FFF054600288DD1642000F031FC9FE76C
:104F00006E65704F87650B00B7650B00E6650B009B
:104F100013660B0043660B0072660B00A6660B005F
:104F200070B52DED028B82B00E461B2201A90446FE
:104F3000FFF7D4FE217A054670B141B1124960688D
:104F400000F03DFE60680A222946FFF7A3FE2846CE
:104F500002B0BDEC028B70BD9DF80630C3F3C202F7
:104F60000A4B03EB820393ED008A49B1084960685C
:104F700000F025FE60680121B0EE480A00F03CFF19
:104F800086ED008AE3E700BFD6660B00046B0B00DA
:104F900009670B0038B541720146044641F8182BE9
:104FA000FFF7BEFF237A05464BB160685DB10B4940
:104FB00000F005FE60680A222946FFF76BFEB5FA8D
:104FC00085F0400938BD064900F0F9FD94ED060A68
:104FD0006068012100F010FFF1E700BF42670B009D
:104FE0007B670B00F0B52DED048B83B00F461646A2
:104FF00001A920220446FFF771FE237A054670B10D
:1050000043B13F49606800F0DAFD60680A22294632
:10501000FFF740FE284603B0BDEC048BF0BDBDF8A1
:10502000042008EE102AB8EE488A9BB13549606822
:1050300000F0C5FDBDF8041060681022FFF71AFEED
:105040003149606800F0BBFD60680221B0EE480A9B
:1050500000F0D2FE9FED2D9A9FED2D7A237AC8EEB7
:10506000097A67EE877A9FED2B7A87EE870A94EDAF
:10507000037AD4ED047A77EE277A87EE878A28EED2
:10508000008A4BB12449606800F099FD60680221F4
:10509000B0EE480A00F0B0FEBDF9063087ED008A98
:1050A00008EE903A237AF8EEE88A9BB11B496068D3
:1050B00000F085FDBDF8061060681022FFF7DAFDEC
:1050C0001749606800F07BFD60680221B0EE680A55
:1050D00000F092FE88EE898A237A94ED050A28EE84
:1050E000008A4BB10F49606800F069FD60680221D9
:1050F000B0EE480A00F080FE86ED008A8AE700BF25
:10510000AD670B00D3670B00E5670B0000D856476F
:1051100000007A4300007A4411680B003A680B00E3
:105120004C680B0077680B002DE9F0432DED048BE4
:1051300083B00F46164601A921220446FFF7CEFD93
:10514000237A054678B143B15549606800F037FDD0
:1051500060680A222946FFF79DFD284603B0BDEC92
:10516000048BBDE8F083BDF90420BDF8049008EE7F
:10517000102AB8EEC88ABBB14A49606800F01FFD2A
:10518000D4F8048010224946404600F034FD4046E1
:1051900000F019FD4449606800F011FD60680221CB
:1051A000B0EE480A00F028FE60699FED409AFFF7D4
:1051B0009BF802460B4600203D49FFF717FA34A33F
:1051C000D3E90023FFF7E8F8FFF7DEFBD4ED036A2D
:1051D00094ED047A237A07EE900A36EE877AC8EEC9
:1051E000277A87EE268A67EE887AC7EE898A4BB1DE
:1051F0003049606800F0E3FC60680221B0EE680AA4
:1052000000F0FAFDBDF80630C7ED008A08EE903ACE
:10521000237AF8EE688A9BB12749606800F0CFFCDA
:10522000BDF8061060681022FFF724FD234960686E
:1052300000F0C5FC60680221B0EE680A00F0DCFDF9
:105240006069FFF751F802460B4600201849FFF746
:10525000CDF911A3D3E90023FFF79EF8FFF794FBE4
:1052600007EE900AC8EEA77A237A28EE278AC8EEBE
:10527000098A4BB11249606800F0A1FC6068022104
:10528000B0EE680A00F0B8FDC6ED008A65E700BF21
:1052900000000000D7A30840000000A09999184022
:1052A0009F680B00D5680B00FA680B0000007A4479
:1052B00000003E4038690B0073690B0096690B00D3
:1052C000D2690B00000000002DE9F0412DED028BAA
:1052D00082B00D46904601A9222204461F46FFF7E0
:1052E000FDFC237A064678B143B14549606800F079
:1052F00066FC60680A223146FFF7CCFC304602B0FB
:10530000BDEC028BBDE8F081BDF8042008EE102A48
:10531000B8EE488A9BB13B49606800F050FCBDF88C
:10532000041060681022FFF7A5FC3749606800F0A0
:1053300046FC60680221B0EE480A00F05DFD60693D
:10534000FEF7D2FF02460B4600203049FFF74EF928
:1053500029A3D3E90023FFF71FF8FFF715FBD4EDCE
:10536000036A94ED047A237A07EE900A36EE877A80
:1053700088EE276AC7EE267A9FED257A67EE867A51
:1053800087EE878A4BB12349606800F018FC60689B
:105390000221B0EE480A00F02FFD85ED008ABDF82D
:1053A000065045F30A056B0108EE103A237ABAEE6F
:1053B000E88AABB11849606800F001FCBDF806103E
:1053C00060681022C1F30A01FFF754FC13496068BA
:1053D00000F0F5FB60680221B0EE480A00F00CFD19
:1053E0009DF8072088ED008AC2F3C0033B700A9B3A
:1053F000C2F300121A7081E7000000A099991840CA
:105400000D6A0B003B6A0B005A6A0B0000003E401D
:1054100000007A44926A0B00C86A0B00E56A0B0030
:1054200080ED040A7047000008B5024B1B685B6CF6
:10543000019308BD4802030008B5024B1B685B6876
:10544000019308BD1802030008B5024B1B685B6995
:10545000019308BD1802030008B5024B1B68DB6806
:10546000019308BD2802030008B5024B1B689B6925
:10547000019308BD2802030008B5024B1B68DB69D5
:10548000019308BD2802030008B5024B1B681B6A84
:10549000019308BD2802030008B5024B1B685B6A34
:1054A000019308BD2802030008B5024B1B689B6AE4
:1054B000019308BD2802030008B5024B1B68DB6A94
:1054C000019308BD2802030008B5024B1B681B6B43
:1054D000019308BD2802030008B5024B1B681B6C32
:1054E000019308BD2802030008B5024B1B681B6D21
:1054F000019308BD2802030008B5024B1B685B69D5
:10550000019308BD6402030008B5024B1B689B6849
:10551000019308BD6802030008B5024B1B68DB68F5
:10552000019308BD6802030008B5024B1B68DB68E5
:10553000019308BD3C02030008B5024B1B681B69C0
:10554000019308BD3C02030008B5024B1B685B6970
:10555000019308BD3C02030008B5024B1B689B6920
:10556000019308BD3C02030008B5024B1B68DB69D0
:10557000019308BD3C02030008B5024B1B689B6AFF
:10558000019308BD3C02030008B5024B1B681B6C6D
:10559000019308BD3C02030008B5024B1B681B6861
:1055A000019308BD4C02030008B5024B1B685B6801
:1055B000019308BD4C02030008B5024B1B681B6930
:1055C000019308BD4C02030008B5024B1B685B69E0
:1055D000019308BD4C02030008B5024B1B689B6990
:1055E000019308BD4C02030008B5024B1B68DB6940
:1055F000019308BD4C02030008B5024B1B681B6AEF
:10560000019308BD4C02030008B5024B1B685B68A0
:10561000019308BD2002030008B5024B1B685B69BB
:10562000019308BD2002030008B5034B1B68D3F8A3
:105630008830019308BD00002002030008B5034B29
:105640001B68D3F89430019308BD000020020300CA
:1056500008B5024B1B68DB6B019308BD44020300D5
:1056600008B5024B1B685B68019308BD400203004C
:1056700008B5024B1B689B68019308BD40020300FC
:1056800008B5024B1B68DB68019308BD40020300AC
:1056900008B5024B1B681B69019308BD400203005B
:1056A00008B5024B1B685B69019308BD400203000B
:1056B00008B5024B1B689B69019308BD40020300BB
:1056C00008B5024B1B68DB69019308BD400203006B
:1056D00008B5024B1B681B6A019308BD400203001A
:1056E00008B5024B1B681B6B019308BD4002030009
:1056F00008B5024B1B685B6B019308BD40020300B9
:1057000008B5024B1B681B6C019308BD40020300E7
:1057100008B5024B1B685B6C019308BD4002030097
:1057200008B5024B1B681B68019308BD1C020300EF
:1057300008B5024B1B685B68019308BD1C0203009F
:1057400008B5024B1B681B6C019308BD1C020300CB
:1057500008B5024B1B685B6C019308BD1C0203007B
:105760000021FFF759BF0000024800230360FFF744
:105770005BBE00BFC4E60320002240681146FFF76D
:10578000A7BF002240681146FFF7B2BF4068002261
:10579000FFF7A6BF4068002281F00101FFF790BF2C
:1057A000002340681A461946FFF782BF002340686D
:1057B0001A461946FFF774BF002240681146FFF7EA
:1057C00067BF002240681146FFF752BF40680022C1
:1057D0000221FFF755BF002340681A46FFF740BF7C
:1057E000024B03225A60024A1A607047C8E603203F
:1057F0002C6B0B007047F8B5064615460C468F1803
:10580000BC4206D0336814F8011B9B6830469847A9
:10581000F6E72846F8BD007C0022FFF735BE007C85
:105820000021FFF739BE007C0021FFF73DBE007C60
:105830000021FFF741BE007C0021FFF745BE10B5F7
:1058400014210446FFF735F9204610BD38B504464B
:1058500015464FF47A730022C4E90123094B2174E1
:10586000084623602946FFF737FEBF3008D16B6931
:10587000DB0705D56868FFF75BFFE868FFF758FFAF
:10588000204638BD686B0B000023007C1A46194681
:10589000FFF7E2BD7FB500221423CDE90122ADF868
:1058A00004300B788DF808304B680393CB68049371
:1058B000007C0B7A059301A9FFF716FE07B05DF88F
:1058C00004FB1FB5003B8DF800104FF064010391FD
:1058D00018BF0123694601928DF80830FFF7DAFFFF
:1058E00005B05DF804FB0123FFF7EBBF007C00224D
:1058F000FFF7BABD007C0022FFF7BEBD0121FFF714
:10590000F9BF704710B518210446FFF7D2F82046BA
:1059100010BDF0B5037D062B8DB00E4600F10407D7
:105920004FF0000412D000F1080515F8011D0A22FD
:10593000304600F060F9AF42044419D0002CF4D096
:105940002E21304600F038F90444EEE72F236A4652
:1059500039460A208DF80040FFF7CEFD6846FFF774
:1059600063F833680246DB68694630469847044668
:1059700020460DB0F0BD000010B5054B04461122C5
:1059800040F8043B002100F0AFFC204610BD00BFF2
:10599000906B0B000346074A10B543F8042B01F146
:1059A000100251F8044B43F8044B9142F9D10A78A4
:1059B0001A7010BD906B0B0010B59DF8084044EABA
:1059C000032343EA024242EA016104234160037572
:1059D00010BD000007B5064B0360CB7800938B78B1
:1059E0004A780978FFF7E8FF03B05DF804FB00BFD1
:1059F000906B0B00014B024A1A607047D0E60320FF
:105A00009C6B0B00002340681A46FFF729BE4068D4
:105A100000220221FFF734BE002240681146FFF742
:105A200027BE002240681146FFF732BE00234068BF
:105A30001A461946FFF734BE002340681A46194635
:105A4000FFF736BE40680021FFF75ABE40680021CC
:105A5000FFF75EBE4068002281F00101FFF730BE13
:105A600040680022FFF73CBE002240681146FFF765
:105A70003FBE002240681146FFF72ABE2DE9F043E1
:105A800095B014460D460746FFF776FF00211C220D
:105A90000DA8009100F028FC40230C9320466B4693
:105AA0000CAA0021FFF738FD044600284BD102461E
:105AB00001216868FFF7ECFD0221804622466868F4
:105AC000FFF7E6FD009E81462146002E3BD00029CF
:105AD00039D17368022B03D00A2B11D0F669F4E791
:105AE000B8F1000FFAD0716906A8043107ADFFF7CD
:105AF00071FF0FCD3C1D0FC42B6823704146EDE7AD
:105B0000B9F1000FEAD07469102201A800F0ECFB93
:105B100006238DF8143001AD04F108031834186819
:105B200059682A4603C20833A3421546F7D101A992
:105B300006A807ADFFF72EFF0FCD3C1D0FC42B6845
:105B400023704946CAE70098FFF7DEFC384615B0D7
:105B5000BDE8F083024B034A1A6000225A60704786
:105B6000D4E60320A86B0B00F8B506460D468F1847
:105B70000024BD420CD0336815F8011B9B683046E9
:105B80009847031E01DB1C44F3E7002C08BF1C46AA
:105B90002046F8BD13B50446084659B10191FEF7F9
:105BA00043FF23680199DB680246204602B0BDE846
:105BB0001040184702B010BD03689B68184708B52D
:105BC000FFF7E8FF08BD38B50D210546FFF7F4FFE4
:105BD0000A2104462846FFF7EFFF204438BD38B5B8
:105BE0000546FFF7D7FF04462846FFF7ECFF2044A1
:105BF00038BDFFF7F4BF30B58BB00023012A8DF814
:105C0000243098BF0A2209AC0D46B1FBF2F101FB2A
:105C1000125303F0FF03092B94BF30333733DBB249
:105C2000AA4204F8013DEFD92146FFF7B3FF0BB0BC
:105C300030BD00002DE9F74F55EC104B06460F46DE
:105C400010EE102A10EE100A2B462946FEF73EFEF3
:105C500040B153493046FFF79DFF8246504603B09E
:105C6000BDE8F08F25F000494E4B4FF0FF32204643
:105C70004946FEF72BFE48B94A4B4FF0FF3220460B
:105C80004946FEF705FE08B94749E3E7474B4FF0A1
:105C9000604220462946FEF70FFE08B14449D9E785
:105CA000444B4FF0604220462946FEF7E7FD0028AE
:105CB000F4D10022002320462946FEF7DFFDD0B1B3
:105CC0002D213046FFF778FF05F1004382461D463F
:105CD0003949DFF8EC904FF0000B00204FF000083E
:105CE0005FFA8BF39F4208D942464B46FEF77EFC93
:105CF0000BF1010BF4E78246EAE722462B46FEF75A
:105D000095F90D460446FEF71FFE8046FEF7CAFAD7
:105D100002460B4620462946FEF786F90A2204462B
:105D20000D4630464146FFF766FF8244002F95D06E
:105D30002249DFF88C903046FFF72CFF4FF0000827
:105D40008244002F8AD042464B4620462946FEF721
:105D500023FB04460D46FEF7CFFDB0F1000B1CDA25
:105D60002D213046FFF728FFCBF1000103460A2220
:105D700030460193FFF73FFF019B18448244584689
:105D8000FEF7A0FA02460B4620462946FEF74CF9DC
:105D9000013F04460D46FFB2D3E759460023E6E72C
:105DA000DC6B0B00FFFFEF7FE06B0B00FFFFEF41B1
:105DB000E46B0B00FFFFEFC10000E03F89640B00C4
:105DC0000000244038B5044610EE100ACDB2FEF7AC
:105DD0008BFA41EC100B29462046BDE83840FFF70E
:105DE00029BF38B5C9B20546FFF724FF0446284647
:105DF000FFF7E9FE204438BD38B5044610EE100A1E
:105E00000D46FEF771FA41EC100B29462046BDE81D
:105E10003840FFF7E6BF0000014B00229A60704750
:105E2000DCE60320054B02221A60054B054A9A6006
:105E30000020C3E90000FFF7E7BB00BFF8E603203E
:105E4000ECE603200000FFFF024B1A68024B1A60C9
:105E5000704700BF3CE60320FCE603207047417416
:105E6000704708B5007CFFF787FB20EAE07008BDAB
:105E700008B5007CFFF760FB20EAE07008BD08B5BC
:105E8000007CFFF769FB40EAE07008BD08B5007CC4
:105E9000FFF75AFB40EAE07008BD007CFFF764BBE7
:105EA00037B5457C04462DB1207C03B0BDE83040B9
:105EB000FFF73ABB007C0191FFF75EFB00280199D8
:105EC000F2DC284603B030BD10B514210446FEF7BD
:105ED000F0FD204610BD000010B54FF47A73044663
:105EE000084611460022C4E90123044B2360012324
:105EF00020746374FFF748FB204610BD0C6C0B0048
:105F0000417470477047704708B50021007CFFF767
:105F100063FB40EAE07008BD08B50121007CFFF793
:105F20005BFB40EAE07008BD08B5007CFFF74CFB66
:105F300020EAE07008BD08B5007CFFF73DFB20EAD1
:105F4000E07008BD13B50446007C0191FFF73CFBEF
:105F50000028019901DC607C20B1207CFFF744FB24
:105F600020EAE07002B010BD007CFFF745BB10B521
:105F700014210446FEF79DFD204610BD10B54FF4D8
:105F80007A73044608460021C4E90113044B2360D8
:105F90000123207463741146FFF7FEFA204610BDFA
:105FA0003C6C0B00007C0022FFF7FEBA10B51422F7
:105FB0000446002100F098F9204610BD10B50F4CA2
:105FC00088B003A8FFF7F2FF2178BFF35B8F11F0D1
:105FD00001010FD120460191FEF76DFD019948B1F5
:105FE00003AA0748FFF7CAFF2046FEF769FD0548E8
:105FF00000F066F9024808B010BD00BF00E70320BA
:1060000004E70320055F0B00002240681146FFF7FC
:106010003FBB002240681146FFF75ABB0022406890
:106020001146FFF765BB40680022FFF759BB406887
:10603000002281F00101FFF743BB002340681A46AC
:106040001946FFF735BB002340681A461946FFF78B
:1060500027BB002240681146FFF70ABB40680022B8
:106060000221FFF70DBB002340681A46FFF7F8BA7C
:10607000024B04225A60024A1A60704718E7032054
:106080006C6C0B00014B1860704700BF40E60320AA
:1060900008B50B4B43B1FFF791FF03681B699847A5
:1060A000002801DDAFF30080064B43B100F0E2F8B9
:1060B00003681B699847002801DDAFF3008008BD25
:1060C000000000000000000008B5FFF7E1FFFFF747
:1060D000BBF9014B186008BD28E703200548064AB4
:1060E000064908B5121A00F0F1F8054B054A1A6086
:1060F00008BD00BF00F4032004F40320C86D0B00AA
:1061000000F403201E1C279A07B5002300931A46AB
:106110006FF07701FFF792FA03B05DF804FB00001F
:1061200007B543880A2B08D0502B0BD1094B1B68AD
:106130004BB103B05DF804EB1847FFF7E5FF03B080
:106140005DF804FB002300931A466FF07701FFF718
:1061500075FAF4E724E7032010B512480021FFF791
:10616000F7FA114B1A68114B9A42114B0CBF0122DE
:1061700000221A7001D0FFF7B1FFFFF75DF9044666
:1061800000F0BAF80B4B13B12046AFF300800021AA
:106190000848FFF75DFABDE8104007480021FFF707
:1061A00043BA00BF85600B0000F403201E1C279A31
:1061B00020E703200000000021610B007047000071
:1061C00038B50A4B03600123044643610849202087
:1061D00000F074F8202560600549A560284600F0AD
:1061E0006DF8C4E90305204638BD00BF1800010062
:1061F000A06C0B0030B50E4D2978BFF35B8F11F00A
:10620000010487B011D12846FEF755FC68B16846F5
:10621000FFF7D6FF6A4621460648FFF717FB2846D8
:10622000FEF74EFC044800F04BF8024807B030BDC2
:106230002CE7032030E70320BD610B00704700000E
:1062400038B5044614252A46002100F04DF8258073
:106250004025074925812846258200F02FF804496A
:106260006060284600F02AF8E060204638BD00BF94
:10627000A06C0B0030B50E4D2978BFF35B8F11F089
:10628000010487B011D12846FEF715FC68B101A8BA
:10629000FFF7D6FF01AA21460648FFF71DFE284654
:1062A000FEF70EFC044800F00BF8024807B030BDC2
:1062B00044E7032048E703203D620B00FEF7F7BBED
:1062C000002301461A46184600F044B80A44914299
:1062D00000F1FF3300D1704710B511F8014B03F8FE
:1062E000014F9142F9D110BD02440346934200D1BF
:1062F000704703F8011BF9E738B5104B1D68AB6B0D
:106300000446B3B91820FFF70BFA0246A86320B978
:106310000B4B0C484221FFF713FA0B490B4BC0E91A
:1063200000130B4B83600B23838100210120C2E902
:106330000401AB6B00221C615A6138BD40E60320AA
:10634000A16C0B00B86C0B000E33CDAB34126DE6B4
:10635000ECDE05002DE9F843DFF8B8800646D8F8F2
:1063600000001F460D46914600F056F8254B1C686C
:1063700034B9254C1C60254B13B11B68C4F8883018
:1063800063681F2B07DDD8F8000000F047F84FF0D6
:10639000FF30BDE8F8834EB3D4F8880088B91C4BB1
:1063A00023B9D8F8000000F038F8F0E74FF4847013
:1063B000FFF7B6F90028F4D00023C0E94033C4F851
:1063C0008800636840F8239001229A4000EB830123
:1063D000D0F800311343C0F80031022EC1F88070AC
:1063E00002BFD0F804311343C0F804316368D8F811
:1063F00000005A1C0233626044F8235000F00EF88B
:106400000020C6E7E8E703205CE703200000000067
:1064100021570B00A4E60320704770477047000027
:10642000394A0B00754A0B009D4A0B00A14A0B002C
:106430000000000041435333373830302045786145
:106440006D706C65004143533337383030206E6FC8
:10645000742064657465637465642E2043686563A5
:106460006B20636F6E6E656374696F6E7320616E0F
:10647000642049324320616464726573732E204640
:106480007265657A696E672E2E2E00566F6C747376
:106490003A200020416D70733A2000506F7765728A
:1064A0003A20416374697665202857293A200020F4
:1064B00052656163746976652028564152293A20F5
:1064C00000506F7765723A204170706172656E742A
:1064D00020285641293A200020506F7765722046C7
:1064E0006163746F723A2000204C616767696E6760
:1064F00000204C656164696E670020436F6E7375A0
:106500006D6564002047656E657261746564007234
:1065100065616452656769737465723A20656E647B
:106520005472616E736D697373696F6E20726574F6
:1065300075726E65643A20007265616452656769C0
:10654000737465723A207265717565737446726F03
:106550006D2072657475726E65643A200077726999
:10656000746552656769737465723A20656E645428
:1065700072616E736D697373696F6E207265747585
:10658000726E65643A20007365744279706173734A
:106590004E656E61626C653A20777269746552650A
:1065A0006769737465722028324629207265747594
:1065B000726E65643A20007365744279706173731A
:1065C0004E656E61626C653A207265616452656702
:1065D000697374657220283146292072657475725A
:1065E0006E65643A20007365744279706173734E0E
:1065F000656E61626C653A206279706173735F6E7B
:106600005F656E2069732063757272656E746C7954
:106610003A20007365744279706173734E656E61E0
:10662000626C653A20777269746552656769737444
:10663000657220283146292072657475726E656412
:106640003A20007365744279706173734E656E61B0
:10665000626C653A2072656164526567697374653E
:106660007220283046292072657475726E65643A0E
:1066700020007365744279706173734E656E616258
:106680006C653A20656570726F6D20627970617318
:10669000735F6E5F656E2069732063757272656EDD
:1066A000746C793A20007365744279706173734E2B
:1066B000656E61626C653A207772697465526567D0
:1066C000697374657220283046292072657475726A
:1066D0006E65643A200067657443757272656E7406
:1066E000436F617273654761696E3A2072656164D8
:1066F000526567697374657220283142292072657A
:106700007475726E65643A200067657443757272C1
:10671000656E74436F617273654761696E3A207389
:106720006861646F77206761696E2073657474694E
:106730006E672069732063757272656E746C793A46
:10674000200041435333373830303A3A6265676945
:106750006E3A206661696C656421206765744375D3
:106760007272656E74436F617273654761696E2002
:1067700072657475726E65643A2000414353333715
:106780003830303A3A626567696E3A2073756363F0
:1067900065737321205F63757272656E74436F61F8
:1067A0007273654761696E2069733A200072656192
:1067B00064524D533A20726561645265676973741F
:1067C000657220283230292072657475726E656496
:1067D0003A200072656164524D533A2076726D73AF
:1067E0003A2030780072656164524D533A20766FDA
:1067F0006C747320284C53422C206265666F72655E
:1068000020636F7272656374696F6E2920697320EB
:106810000072656164524D533A20766F6C74732038
:1068200028562C20616674657220636F72726563EE
:1068300074696F6E29206973200072656164524D1E
:10684000533A2069726D733A203078007265616442
:10685000524D533A20616D707320284C53422C20C6
:106860006265666F726520636F7272656374696FCB
:106870006E29206973200072656164524D533A207D
:10688000616D70732028412C2061667465722063ED
:106890006F7272656374696F6E292069732000726C
:1068A000656164506F77657241637469766552659E
:1068B0006163746976653A207265616452656769DF
:1068C0007374657220283231292072657475726E76
:1068D00065643A200072656164506F776572416348
:1068E0007469766552656163746976653A20706192
:1068F00063746976653A2030780072656164506F20
:10690000776572416374697665526561637469760F
:10691000653A207061637469766520284C53422C77
:10692000206265666F726520636F72726563746959
:106930006F6E29206973200072656164506F7765FE
:106940007241637469766552656163746976653A0C
:1069500020706163746976652028572C2061667405
:10696000657220636F7272656374696F6E29206946
:1069700073200072656164506F776572416374695A
:10698000766552656163746976653A2070696D61F8
:10699000673A2030780072656164506F77657241A4
:1069A000637469766552656163746976653A2070CF
:1069B000696D616720284C53422C206265666F72B6
:1069C0006520636F7272656374696F6E29206973E5
:1069D000200072656164506F7765724163746976F7
:1069E0006552656163746976653A2070696D6167A7
:1069F00020285641522C20616674657220636F72A4
:106A000072656374696F6E29206973200072656115
:106A100064506F776572466163746F723A20726575
:106A20006164526567697374657220283232292067
:106A300072657475726E65643A20007265616450A7
:106A40006F776572466163746F723A20706170701F
:106A50006172656E743A2030780072656164506FBF
:106A6000776572466163746F723A2070617070610D
:106A700072656E7420284C53422C206265666F72DA
:106A80006520636F7272656374696F6E2920697324
:106A9000200072656164506F776572466163746F40
:106AA000723A20706170706172656E742028564170
:106AB0002C20616674657220636F727265637469FD
:106AC0006F6E29206973200072656164506F77656D
:106AD00072466163746F723A2070666163746F729C
:106AE0003A2030780072656164506F776572466154
:106AF00063746F723A2070666163746F7220697399
:106B0000200000000000803F0000004000004040E6
:106B10000000604000008040000090400000B04055
:106B2000000000410000000000000000D7570B00EB
:106B3000CD570B00C3570B00B9570B00AD570B00D7
:106B4000A1570B00455A0B004D5A0B0095570B00EF
:106B50008D570B0083570B0079570B007D5A0B00A4
:106B60000000000000000000F5570B003F580B002C
:106B700017580B00F7570B001F580B0027580B0036
:106B80002F580B0037580B000000000000000000D9
:106B900013590B0003590B0005590B00617070006D
:106BA0000000000000000000055A0B000F5A0B0007
:106BB000195A0B00235A0B002D5A0B00395A0B009F
:106BC000455A0B004D5A0B00555A0B00615A0B00E9
:106BD000695A0B00735A0B007D5A0B006E616E00F0
:106BE000696E66006F76660025592D256D2D25642A
:106BF0005425483A254D3A2553257A00617363742C
:106C0000696D650000000000000000005D5E0B0083
:106C1000C95E0B00A15E0B00695B0B00715E0B008F
:106C20008D5E0B007F5E0B009B5E0B005F5E0B00BA
:106C3000635E0B000000000000000000075F0B0017
:106C40006F5F0B00455F0B00695B0B00375F0B004C
:106C5000095F0B00195F0B00695F0B00295F0B00D8
:106C6000015F0B00000000000000000067600B00E7
:106C70005D600B0053600B0009600B0047600B0068
:106C80003B600B00455A0B004D5A0B002F600B0068
:106C900027600B001D600B0013600B007D5A0B007A
:106CA000005245454E54206D616C6C6F63207375C6
:106CB00063636565646564002F746D702F6A656E2B
:106CC0006B696E732D4743432D31302D70697065AC
:106CD0006C696E652D34385F323032303131323488
:106CE0005F313630363138303633392F7372632F97
:106CF0006E65776C69622F6E65776C69622F6C695F
:106D000062632F7374646C69622F72616E642E63A8
:106D100000000000694C0B0069570B00E1570B00A5
:106D2000F5590B00555B0B00195E0B00255E0B003F
:086D3000495E0B0071600B00CD
:106D3800040000001400000003000000474E550046
:106D4800CB66E32FC52610373B1AC00ECC52D18430
:046D5800BD32BF8FFA
:106D5C00FC6B0B0044E60320000000000000000068
:106D6C000000000000000000000000000000000017
:106D7C000000000000000000000000000000000007
:106D8C0000000000000000000000000000000000F7
:106D9C0000000000000000000000000000000000E7
:106DAC0000000000000000000000000000000000D7
:0C6DBC000000000000000000ECE70320D5
:046DC80000000000C7
:106DD20000000102030405060708090A0B0C0D0E48
:106DE2000F101112131415161718191A1B1C1D1E39
:046DF2001F20280036
:046DF6007856341285
:04000003B0004020E9
:00000001FF
