:02000004085F93
:1080000000805F08FCFF5F080000060020000501FB
:088010000401B514000000009A
:108018000E480F4908B5884205D00E4A824202D060
:108028000D4B121A98470D480D4A00210D4B121A94
:1080380098470D480D49884205D00D4A824202D022
:10804800054B121A9847014808BD00BF5CAD0710E0
:1080580060F85F08D4AD07102D0D1110D4AD0710CE
:10806800E8AF0710A10E111020883F0288805F0832
:0C807800F8FF3F0219805F0800000000C4
:088088007C805F0868CA3F021A
:1080900081F0004102E000BF83F0004330B54FEAB9
:1080A00041044FEA430594EA050F08BF90EA020F26
:1080B0001FBF54EA000C55EA020C7FEA645C7FEAB9
:1080C000655C00F0E2804FEA5454D4EB5555B8BFDC
:1080D0006D420CDD2C4480EA020281EA030382EA4D
:1080E000000083EA010180EA020281EA0303362DDF
:1080F00088BF30BD11F0004F4FEA01314FF4801CB2
:108100004CEA113102D0404261EB410113F0004FC3
:108110004FEA03334CEA133302D0524263EB43037A
:1081200094EA050F00F0A780A4F10104D5F1200E18
:108130000DDB02FA0EFC22FA05F2801841F1000173
:1081400003FA0EF2801843FA05F359410EE0A5F147
:1081500020050EF1200E012A03FA0EFC28BF4CF078
:10816000020C43FA05F3C01851EBE37101F000452E
:1081700007D54FF0000EDCF1000C7EEB00006EEB3B
:108180000101B1F5801F1BD3B1F5001F0CD34908C5
:108190005FEA30004FEA3C0C04F101044FEA44521C
:1081A00012F5800F80F09A80BCF1004F08BF5FEAA3
:1081B000500C50F1000041EB045141EA050130BD83
:1081C0005FEA4C0C404141EB0101013C28BFB1F595
:1081D000801FE9D291F0000F04BF01460020B1FAE0
:1081E00081F308BF2033A3F10B03B3F120020CDAB3
:1081F0000C3208DD02F1140CC2F10C0201FA0CF091
:1082000021FA02F10CE002F11402D8BFC2F1200CF5
:1082100001FA02F120FA0CFCDCBF41EA0C019040AB
:10822000E41AA2BF01EB0451294330BD6FEA0404F4
:108230001F3C1CDA0C340EDC04F11404C4F12002DF
:1082400020FA04F001FA02F340EA030021FA04F3F1
:1082500045EA030130BDC4F10C04C4F1200220FA48
:1082600002F001FA04F340EA0300294630BD21FA86
:1082700004F0294630BD94F0000F83F4801306BF4C
:1082800081F480110134013D4EE77FEA645C18BF40
:108290007FEA655C29D094EA050F08BF90EA020FD7
:1082A00005D054EA000C04BF1946104630BD91EACF
:1082B000030F1EBF0021002030BD5FEA545C05D1D2
:1082C0004000494128BF41F0004130BD14F5800411
:1082D0003CBF01F5801130BD01F0004545F0FE4185
:1082E00041F470014FF0000030BD7FEA645C1ABFBA
:1082F000194610467FEA655C1CBF0B46024650EAF1
:10830000013406BF52EA033591EA030F41F400211C
:1083100030BD00BF90F0000F04BF0021704730B5A2
:108320004FF4806404F132044FF000054FF0000177
:1083300050E700BF90F0000F04BF0021704730B538
:108340004FF4806404F1320410F0004548BF40420D
:108350004FF000013EE700BF42004FEAE2014FEA62
:1083600031014FEA02701FBF12F07F4393F07F4F3D
:1083700081F06051704732F07F4208BF704793F040
:108380007F4F04BF41F40021704730B54FF4607453
:1083900001F0004521F000411CE700BF50EA010256
:1083A00008BF704730B54FF000050AE050EA0102FF
:1083B00008BF704730B511F0004502D5404261EB6F
:1083C00041014FF4806404F132045FEA915C3FF4B0
:1083D000D8AE4FF003025FEADC0C18BF03325FEA4D
:1083E000DC0C18BF033202EBDC02C2F1200300FAFE
:1083F00003FC20FA02F001FA03FE40EA0E0021FA23
:1084000002F11444BDE600BF70B54FF0FF0C4CF410
:10841000E06C1CEA11541DBF1CEA135594EA0C0FC2
:1084200095EA0C0F00F0DEF82C4481EA030621EAFD
:108430004C5123EA4C5350EA013518BF52EA033538
:1084400041F4801143F4801338D0A0FB02CE4FF0EA
:108450000005E1FB02E506F00042E0FB03E54FF01A
:108460000006E1FB03569CF0000F18BF4EF0010E12
:10847000A4F1FF04B6F5007F64F5407404D25FEA0E
:108480004E0E6D4146EB060642EAC62141EA5551C1
:108490004FEAC52040EA5E504FEACE2EB4F1FD0C03
:1084A00088BFBCF5E06F1ED8BEF1004F08BF5FEA81
:1084B000500E50F1000041EB045170BD06F0004633
:1084C00046EA010140EA020081EA0301B4EB5C04E0
:1084D000C2BFD4EB0C0541EA045170BD41F48011D8
:1084E0004FF0000E013C00F3AB8014F1360FDEBFFD
:1084F000002001F0004170BDC4F10004203C35DAD9
:108500000C341BDC04F11404C4F1200500FA05F35B
:1085100020FA04F001FA05F240EA020001F00042FC
:1085200021F0004110EBD37021FA04F642EB060172
:108530005EEA430E08BF20EAD37070BDC4F10C049C
:10854000C4F1200500FA04F320FA05F001FA04F260
:1085500040EA020001F0004110EBD37041F100014C
:108560005EEA430E08BF20EAD37070BDC4F1200557
:1085700000FA05F24EEA020E20FA04F301FA05F2BF
:1085800043EA020321FA04F001F0004121FA04F267
:1085900020EA020000EBD3705EEA430E08BF20EA37
:1085A000D37070BD94F0000F0FD101F00046400071
:1085B00041EB010111F4801F08BF013CF7D041EAF3
:1085C000060195F0000F18BF704703F000465200F7
:1085D00043EB030313F4801F08BF013DF7D043EAC8
:1085E0000603704794EA0C0F0CEA135518BF95EA7E
:1085F0000C0F0CD050EA410618BF52EA4306D1D105
:1086000081EA030101F000414FF0000070BD50EA23
:10861000410606BF1046194652EA430619D094EAAD
:108620000C0F02D150EA013613D195EA0C0F05D197
:1086300052EA03361CBF104619460AD181EA0301EB
:1086400001F0004141F0FE4141F470014FF00000A3
:1086500070BD41F0FE4141F4780170BD70B54FF03E
:10866000FF0C4CF4E06C1CEA11541DBF1CEA1355BE
:1086700094EA0C0F95EA0C0F00F0A7F8A4EB0504A0
:1086800081EA030E52EA03354FEA013100F0888097
:108690004FEA03334FF0805545EA131343EA126360
:1086A0004FEA022245EA111545EA10654FEA002615
:1086B0000EF000419D4208BF964244F1FD0404F5CE
:1086C000407402D25B084FEA3202B61A65EB03052A
:1086D0005B084FEA32024FF480104FF4002CB6EBE7
:1086E000020E75EB030E22BFB61A754640EA0C0067
:1086F0005B084FEA3202B6EB020E75EB030E22BFA7
:10870000B61A754640EA5C005B084FEA3202B6EBE7
:10871000020E75EB030E22BFB61A754640EA9C00A6
:108720005B084FEA3202B6EB020E75EB030E22BF76
:10873000B61A754640EADC0055EA060E18D04FEA34
:10874000051545EA16754FEA06164FEAC30343EAD4
:1087500052734FEAC2025FEA1C1CC0D111F4801FA1
:108760000BD141EA00014FF000004FF0004CB6E79A
:1087700011F4801F04BF01430020B4F1FD0C88BF39
:10878000BCF5E06F3FF6AFAEB5EB030C04BFB6EB44
:10879000020C5FEA500C50F1000041EB045170BD37
:1087A0000EF0004E4EEA113114EB5C04C2BFD4EB64
:1087B0000C0541EA045170BD41F480114FF0000EE8
:1087C000013C90E645EA060E8DE60CEA135594EA64
:1087D0000C0F08BF95EA0C0F3FF43BAF94EA0C0F67
:1087E0000AD150EA01347FF434AF95EA0C0F7FF4DC
:1087F00025AF104619462CE795EA0C0F06D152EA30
:1088000003353FF4FDAE1046194622E750EA410613
:1088100018BF52EA43067FF4C5AE50EA41047FF424
:108820000DAF52EA43057FF4EBAE12E74FF0FF3C89
:1088300006E000BF4FF0010C02E000BF4FF0010C5A
:108840004DF804CD4FEA410C7FEA6C5C4FEA430CD3
:1088500018BF7FEA6C5C1BD001B050EA410C0CBF22
:1088600052EA430C91EA030F02BF90EA020F002084
:10887000704710F1000F91EA030F58BF994208BFEB
:1088800090422CBFD8176FEAE37040F001007047A8
:108890004FEA410C7FEA6C5C02D150EA013C07D1FF
:1088A0004FEA430C7FEA6C5CD6D152EA033CD3D04A
:1088B0005DF8040B704700BF8446104662468C4644
:1088C0001946634600E000BF01B5FFF7B7FF002877
:1088D00048BF10F1000F01BD4DF808EDFFF7F4FFA0
:1088E0000CBF012000205DF808FB00BF4DF808ED2B
:1088F000FFF7EAFF34BF012000205DF808FB00BF4E
:108900004DF808EDFFF7E0FF94BF012000205DF86F
:1089100008FB00BF4DF808EDFFF7CEFF94BF012024
:1089200000205DF808FB00BF4DF808EDFFF7C4FF1D
:1089300034BF012000205DF808FB00BF4FEA410C66
:108940007FEA6C5C02D150EA013C0AD14FEA430C49
:108950007FEA6C5C02D152EA033C02D14FF0000086
:1089600070474FF0010070474FEA410212F50012C4
:1089700015D211D56FF47873B3EB625212D94FEA66
:10898000C12343F0004343EA505311F0004F23FA50
:1089900002F018BF404270474FF00000704750EAA5
:1089A000013005D111F0004008BF6FF00040704762
:1089B0004FF00000704700BF4A0011D212F50012BC
:1089C00011D20DD56FF47873B3EB62520ED44FEA27
:1089D000C12343F0004343EA505323FA02F07047A7
:1089E0004FF00000704750EA013002D14FF0FF30E5
:1089F00070474FF0000070474FEA4102B2F1E04388
:108A000024BFB3F5001CDCF1FE5C0DD901F0004C75
:108A10004FEAC0024CEA5070B2F1004F40EB8300C5
:108A200008BF20F00100704711F0804F21D113F1F1
:108A30003872BCBF01F00040704741F480114FEA2A
:108A40005252C2F11802C2F1200C10FA0CF320FAB3
:108A500002F018BF40F001004FEAC1234FEAD323D0
:108A600003FA0CFC40EA0C0023FA02F34FEA43033A
:108A7000CCE77FEA625307D150EA01331EBF4FF0C3
:108A8000FE4040F44000704701F0004040F0FE40DE
:108A900040F40000704700BF034613F8012B002A82
:108AA000FBD1181A0138704770B503F0C3F90025DF
:108AB000054E064CA41BA408AC4200D170BD56F86C
:108AC000043B98470135F7E7D4FF3F02F8FF3F0228
:108AD00000F082B908B500F04DFBBDE8084003F096
:108AE00061B902F0AFBB02F0BBBB00000C2008B5BF
:108AF000024A034902F0AAFAFEE700BF4DB33F0263
:108B000078CA3F020078B0FA80F04009704701232C
:108B10000370704710B502F05BF80C4A1368C31A73
:108B2000F92B12D90A4C106021680D20B1FA81F19D
:108B30004909216003F0FFF921680E20BDE81040CB
:108B4000B1FA81F1490903F0F6B910BD28AE07105A
:108B5000D4AD071038B5254D254C95ED007AD4EDF0
:108B6000007AB4EEE77AF1EE10FA25DB214A1368B9
:108B700003BB01231360FFF7CDFFD5ED007AB7EEFD
:108B8000007AF4EEC77AF1EE10FA21DDD4ED006A36
:108B9000F4EEE67AF1EE10FA1AD5164B1C6824BBF7
:108BA00001210D2003F0C7F92146BDE838400E2011
:108BB00003F0C1B9012BDED0B4EEE77AF1EE10FA82
:108BC000DBD50C4B1A68012A04BF00221A60D4E7D7
:108BD000F4EEC77AF1EE10FA07D5064B196821B901
:108BE0000D2003F0A8F90121DFE738BD7CAE0710A6
:108BF00064AD0710D8AD0710F7B51F237825002204
:108C00004FF6FF761E275A4CCDE9005311462046F9
:108C1000A02301F03CFCCDE900762B4620465022F3
:108C2000142101F034FC4FF4FC632046CDE90053DD
:108C30007922A023002101F02AFCCDE900762B4601
:108C40002046C922142101F022FC4FF4784320462B
:108C5000CDE900530022A023A12101F018FCCDE9A9
:108C600000762B4620465022B52101F010FCCDE9BC
:108C7000005600257922A0232046A12101F007FCFF
:108C800020463C4901F00DFA3B4F2046022101F0FD
:108C900002FA3A4B39463A4E20462361E57602F015
:108CA00035FD384B31462046236102F046FD364BF8
:108CB00020463649236102F040FD2046344901F048
:108CC000F0F920460121656101F0E5F9314B2046BC
:108CD0003149236102F01AFD304B022193ED000A65
:108CE000204602F01DFE3946204602F00FFD2C4BB7
:108CF00020462C49236102F009FD2B4B022193ED04
:108D0000000A204602F00CFE3146204602F0FEFC2E
:108D1000264B20462649236102F0F8FC254B022110
:108D200093ED000A204602F0FBFD2046224902F0A6
:108D3000EDFC2046214901F0B4F92046012165618E
:108D400001F0A9F91E4B20461E49236102F0DEFC0A
:108D50001D4B20461D49236102F0D8FC20461C4BC8
:108D60001C49236103B0BDE8F04002F0CFBC00BF56
:108D70002CAE0710ACCB3F028DCA3F027300280017
:108D80008FCA3F02130128006E00A500A4CA3F024B
:108D900094CB3F021900660091CA3F0264AD0710F0
:108DA000B900660097CA3F0260AD07101900DE00E7
:108DB0009DCA3F02DCAD0710A3CA3F02A0CB3F0211
:108DC000AF009B00A6CA3F02AF00B900ABCA3F028A
:108DD000AF00D700B0CA3F0208B501210D2003F053
:108DE00099F801210E2003F095F8F0224FF4A071BC
:108DF0001A4801F0C9FD0021184800F0A8FE03211F
:108E0000164801F07DFDFFF7F7FE02F03BFF4FF43F
:108E1000E13102F02BFF02F035FF114902F097FC1F
:108E200003F0BEF802F0DAFA03F0BAF86021024665
:108E30000C4800F05FFB28B902F024FF0A4902F059
:108E40006CFCFEE700220748114600F089FABDE8F5
:108E500008409FED060A034800F092BD2CAE0710B3
:108E6000B6CA3F02E4AD0710C7CA3F020024744AE5
:108E70002DE9F041554C5649204601F012F92046A3
:108E8000012101F008F900264FF01F13514F524DF8
:108E900097ED000A02212046C4E90453E67602F069
:108EA00059FD25614FF0FF35DFF85481022198ED1F
:108EB000000A2046656102F04DFDD8F80030DFF869
:108EC00044813B604FF0F823444F022197ED000AA4
:108ED0002046C4E9048302F03DFDC4E90485DFF8BF
:108EE0002881022198ED000A204602F033FDD8F8CF
:108EF0000030DFF818813B60394F3A4B97ED000A9C
:108F000002212046C4E9048302F024FDC4E904855B
:108F1000DFF8FC80022198ED000A204602F01AFDDD
:108F2000D8F8003020463B602F49304F01F0B9F8A7
:108F3000DFF8E0802046012101F0ADF897ED000A4E
:108F400003212046C4E9048502F004FDC4E9048637
:108F5000DFF8C480032198ED000A204602F0FAFCF5
:108F6000D8F80030DFF8B4803B60214F022197ED44
:108F7000000A2046C4E9048502F0ECFCC4E904863A
:108F8000DFF89C80022198ED000A204602F0E2FC06
:108F9000D8F8003002213B60164F2046C4E9047522
:108FA000154D95ED000A02F0D5FCC4E90476134E88
:108FB000204696ED000A022102F0CCFC33683220F4
:108FC0002B60BDE8F04102F075B900BF2CAE071070
:108FD000B8CB3F0224AE07100F00280010AE0710D8
:108FE00018AE0710E007E007A0CB3F021CAE071049
:108FF00014AE0710FA00D70020AE07100CAE071011
:109000007CAE0710AF002800E0AD07100F00A500F0
:1090100004AE0710FA009B0008AE0710FA00B90072
:1090200000AE071030B5424C424D85B0224629466D
:10903000414800F087FA02F025FE404902F06DFB3E
:1090400002F020FE95ED000A022102F069FC02F018
:1090500019FE3B4902F061FB3A4D02F013FE94ED1C
:10906000000A394C022102F075FC2246294632489A
:1090700000F00AFB02F006FE344902F04EFB02F05B
:1090800001FE95ED000A022102F04AFC02F0FAFD11
:109090002F4902F042FB02F0F5FD94ED000A022197
:1090A00002F058FC00232B4C2B4D8DF80E308DF820
:1090B0000F300DF10F032246294600931E480DF193
:1090C0000E0300F0B1FB02F0DDFD244902F025FBA8
:1090D00002F0D8FD95ED000A022102F021FC02F019
:1090E000D1FD1F4902F019FB02F0CCFD032194EDE4
:1090F000000A02F015FC9DF80E308BB102F0C2FDA3
:10910000184902F00AFB9DF80F306BB102F0BAFD6E
:10911000154902F01CFBFA2002F0CCF805B030BD76
:1091200002F0B0FD1149ECE702F0ACFD1049F0E7A8
:10913000E0AD07107CAE0710E4AD07100DCB3F0289
:1091400015CB3F0200AE07100CAE07101DCB3F023F
:1091500031CB3F0208AE071004AE071043CB3F02ED
:109160005ACB3F026ACB3F027CCB3F0273CB3F021C
:1091700086CB3F0208B5FFF7EDFCFFF753FFBDE8D4
:109180000840FFF775BE000008B50522062312212E
:109190000A4801F0EFFB0A4800F040F8094BDFED08
:1091A0000A6AD3ED007A094B93ED007A67EE877A6D
:1091B00087EEA67A064B83ED007A08BD2CAE071029
:1091C000E4AD071064AD071000007A4460AD0710ED
:1091D000DCAD071010B5044642B90268C9B2926806
:1091E00090472046BDE8104002F09BBAD2B202F090
:1091F000B0FAF6E710B504463AB903689B68984799
:109200002046BDE8104002F08CBAD2B202F0A1FABA
:10921000F6E70368C9B29B68184700004FF4C042E4
:109220000281034AC260034A0261034A42617047F5
:1092300000C028450024744A0000F0412DE9F041A7
:10924000044615460F46417A006802F0F9F8206896
:10925000294603689B6898470021206802F0F4F8CB
:10926000064698B1237A1BB901263046BDE8F08145
:109270001D49606802F051FA0A22314664682046AE
:1092800002F067FA204602F04CFAEDE70422617A18
:10929000206802F0D2F8C5B2042D0AD0237A002B40
:1092A000E2D01249606802F038FA0A22294664685E
:1092B000E5E7206803685B69984780462068036893
:1092C0005B6998470546206803685B699847020414
:1092D000206842EA052343EA080503685B6998476A
:1092E00045EA00653D60C0E72CF13F0255F13F02C1
:1092F00070B5044616460D46417A006802F0A0F8A3
:109300002068314603689B689847E9B22068FFF7F8
:1093100080FFC5F307212068FFF77BFFC5F30741F6
:109320002068FFF776FF290E2068FFF772FF20689C
:1093300002F08EF8054678B1237A63B10749606878
:1093400002F0EBF964680A222946204602F001FA8D
:10935000204602F0E6F90125284670BD7AF13F0269
:10936000F7B50E4617463E492F220446FFF7C0FFC9
:10937000054618B1237A9BB13A4909E01F222046DD
:1093800001A9FFF75BFF237A054660B143B1364977
:10939000606802F0C2F90A2229466068FFF72AFFD6
:1093A000284603B0F0BD5BB13049606802F0B5F902
:1093B0009DF807100A22606801F00101FFF70AFF1B
:1093C0009DF807301F2266F300038DF80730204612
:1093D0000199FFF78DFF054620B1237A002BDFD0DE
:1093E0002349D5E787B30F22204601A9FFF726FFBF
:1093F000237A054618B1002BD2D01E49C8E75BB1CD
:109400001D49606802F089F99DF807100A2260681A
:1094100001F00101FFF7DEFE9DF807300F2266F331
:1094200000038DF8073020460199FFF761FF0546DC
:1094300050B1237A43B11149606802F06EF90A22F3
:1094400029466068FFF7D6FE2F2200212046FFF74D
:109450004FFF054600288DD1642001F02BFF9FE7C8
:109460006E65704FA4F13F02D4F13F0203F23F0258
:1094700030F23F0260F23F028FF23F02C3F23F023E
:1094800070B52DED028B82B00E461B2201A9044659
:10949000FFF7D4FE217A054670B141B112496068E8
:1094A00002F03BF90A2229466068FFF7A3FE28462E
:1094B00002B0BDEC028B70BD9DF80630C3F3C20252
:1094C0000A4B03EB820393ED008A49B108496068B7
:1094D00002F023F90121B0EE480A606802F03AFA7E
:1094E00086ED008AE3E700BFF3F23F0220F73F0278
:1094F00026F33F0238B541720146044641F8182B65
:10950000FFF7BEFF237A05464BB160685DB10B499A
:1095100002F003F90A2229466068FFF76BFEB5FAEC
:1095200085F0400938BD064902F0F7F8012194EDB5
:10953000060A606802F00EFAF1E700BF5FF33F022F
:1095400098F33F02F0B52DED048B83B00F4616461D
:1095500001A920220446FFF771FE237A054670B167
:1095600043B13F49606802F0D8F80A222946606892
:10957000FFF740FE284603B0BDEC048BF0BDBDF8FC
:10958000042008EE102AB8EE488A9BB1354960687D
:1095900002F0C3F81022BDF804106068FFF71AFE4D
:1095A0003149606802F0B9F80221B0EE480A6068FB
:1095B00002F0D0F99FED2D9A9FED2D7AC8EE097A31
:1095C00067EE877A9FED2B7A87EE870A94ED037A10
:1095D000D4ED047A77EE277A87EE878A237A28EE0D
:1095E000008A4BB12449606802F097F80221B0EE7E
:1095F000480A606802F0AEF9BDF9063087ED008ACE
:1096000008EE903A237AF8EEE88A9BB11B4960682D
:1096100002F083F81022BDF806106068FFF7DAFD4B
:109620001749606802F079F80221B0EE680A6068B4
:1096300002F090F988EE898A94ED050A237A28EEE3
:10964000008A4BB10F49606802F067F80221B0EE62
:10965000480A606802F07EF986ED008A8AE700BF5A
:10966000CAF33F02F0F33F0202F43F0200D856472C
:1096700000007A4300007A442EF43F0257F43F0280
:1096800069F43F0294F43F022DE9F0432DED048B81
:1096900083B00F46164601A921220446FFF7CEFDEE
:1096A000237A054678B143B15549606802F035F830
:1096B0000A2229466068FFF79DFD284603B0BDECED
:1096C000048BBDE8F083BDF90420BDF8049008EEDA
:1096D000102AB8EEC88ABBB14A49606802F01DF88A
:1096E000D4F8048010224946404602F032F8404641
:1096F00002F017F84449606802F00FF80221B0EE5A
:10970000480A606802F026F96069FEF725FE024605
:109710000B4600203D49FEF7A1FF35A3D3E9002306
:10972000FEF772FEFFF768F9D4ED036A94ED047A50
:1097300007EE900A36EE877AC8EE277A87EE268AF9
:109740009FED339A67EE887A237AC7EE898A4BB108
:109750003049606801F0E1FF0221B0EE680A6068FC
:1097600002F0F8F8C7ED008ABDF8063008EE903A2E
:10977000237AF8EE688A9BB12749606801F0CDFF33
:109780001022BDF806106068FFF724FD23496068C9
:1097900001F0C3FF0221B0EE680A606802F0DAF857
:1097A0006069FEF7D9FD02460B4600201749FEF717
:1097B00055FF11A3D3E90023FEF726FEFFF71CF99E
:1097C00007EE900AC8EEA77A28EE278A237AC8EE19
:1097D000098A4BB11249606801F09FFF0221B0EE87
:1097E000680A606802F0B6F8C6ED008A65E700BF57
:1097F00000000000D7A30840000000A0999918407D
:10980000BCF43F02F2F43F0217F53F0200003E4075
:1098100000007A4455F53F0290F53F02B3F53F0250
:10982000EFF53F02000000002DE9F0412DED028B25
:1098300082B00D46904601A9222204461F46FFF73A
:10984000FDFC237A064678B143B14549606801F0D2
:1098500064FF0A2231466068FFF7CCFC304602B054
:10986000BDEC028BBDE8F081BDF8042008EE102AA3
:10987000B8EE488A9BB13B49606801F04EFF102268
:10988000BDF804106068FFF7A5FC3749606801F077
:1098900044FF0221B0EE480A606802F05BF860699C
:1098A000FEF75AFD02460B4600203049FEF7D6FE71
:1098B00029A3D3E90023FEF7A7FDFFF79DF8D4ED18
:1098C000036A94ED047A07EE900A36EE877A88EE02
:1098D000276AC7EE267A9FED267A67EE867A237A84
:1098E00087EE878A4BB12349606801F016FF022199
:1098F000B0EE480A606802F02DF885ED008ABDF8E8
:10990000065045F30A056B0108EE103A237ABAEEC9
:10991000E88AABB11849606801F0FFFEBDF8061097
:1099200010226068C1F30A01FFF754FC1349606814
:1099300001F0F3FE0221B0EE480A606802F00AF876
:109940009DF8072088ED008AC2F3C0033B700A9B94
:10995000C2F300121A7081E7000000A09999184024
:109960002AF63F0258F63F0277F63F0200003E40DB
:1099700000007A44AFF63F02E5F63F0202F73F02ED
:1099800080ED040A70472DE9F04F1F4685B0BDF900
:109990003880A7EB010AA8EB0209B9F1000FB8BFA4
:1099A000C9F10009BAF1000FB8BFCAF1000AD145E8
:1099B00083460C461546BDF83C3004DD3A462C463D
:1099C00047460D469046BC4205DD2A464546904630
:1099D00022463C4617463E1BB2B20092A8EB050257
:1099E00082EAE271A1EBE271C6F3C03202FA86F6B6
:1099F0004545B4BF01224FF0FF320191761002922B
:109A0000BC421CDCDBF80020D145D2F81880C7BF6F
:109A1000294622462A46214603935846C047019AC2
:109A2000039BB61AB1B236B2002E05DA029A15447B
:109A3000009A2DB2561836B2013424B2E0E705B0D0
:109A4000BDE8F08F704710B404682469A4465DF83F
:109A5000044B604730B4BDF8085004680295A46B0D
:109A6000A44630BC604730B4BDF808500468029585
:109A7000E46BA44630BC604770B4BDF90C50BDF82F
:109A800010600468CDE90356246CA44670BC60479E
:109A90002DE9F3411C46164605460F460368013C76
:109AA000BDF820805B693444984724B22B68CDF818
:109AB0000480009428469C6A32463B463946A047BB
:109AC00028462B68DB6A02B0BDE8F04118472DE953
:109AD000F341174604461D460E460368BDF8208034
:109AE0005B699847CDE9007822686B1E33442046B5
:109AF000956A31463A461BB2A84720462368DB6A7E
:109B000002B0BDE8F04118472DE9F3471E4603684F
:109B10000C465B6905461746BDF92890BDF82C80B8
:109B200098472644B4422B680BDACDF800802146D2
:109B3000D3F820A03A464B4628460134D04724B2F9
:109B4000F0E72846DB6A02B0BDE8F047184713B5D6
:109B50000191B0F90E1002680091146C0022B0F966
:109B60000C301146A04702B010BD2DE9F7439942D1
:109B7000164680460D461C46BDF92870BDF82C904F
:109B8000026812D1BE42C2BF33463E461F46CDF8E0
:109B900028907B1C946B9B1B324629464046A4466A
:109BA0001BB203B0BDE8F0436047BE420AD1994200
:109BB000C2BF0B4625461C46CDF82890631C5B1B94
:109BC000D46BE9E753699847CDE90079D8F80030BC
:109BD00040469F6A324623462946B8474046D8F851
:109BE0000030DB6A03B0BDE8F04318472DE9F347C6
:109BF00004460F4616461D460368BDF82C805B6977
:109C0000BDF9289098472368CDF800803246394640
:109C10002046D3F824A02B46D047236809F1FF3211
:109C2000CDF80080324439462046D3F824A012B241
:109C30002B46D0472368CDF800803246394620466F
:109C4000D3F820A04B46D0476B1ED9192368CDF816
:109C5000008020461D6A32464B4609B2A84720467E
:109C60002368DB6A02B0BDE8F0471847704701F08F
:109C70000303B0F90A208376B0F90830C90759BF49
:109C80008381C2818281C3817047000030B5018128
:109C9000002481814FF0FF31054D4281C281054A88
:109CA0004460C0E90512056004610477046230BDB8
:109CB00048FC3F02010100012DE9F04F2DED028B20
:109CC00091B016461F46026ABDF870308346BDF853
:109CD00074809DF878509DF87C4003910493002A8D
:109CE00040F0C580B0F90C308B4240F34C81B0F9A4
:109CF0000E30B34240F34781062313FB0513002BBC
:109D000040F3418106EBC403002B40F33C81037F09
:109D10001BB9AF2F84BF0137FFB2DBF800305846C4
:109D20005B6998470522099200220592984A07EB41
:109D30008703D3180C93B3B20693059A0C9B02FBCE
:109D400005F99B5C0793ABB20B93BDF80C300893FD
:109D5000039B19FA83F90FFA89F308EE103A0823E6
:109D60004FF000090A93039B02EB030A0FFA8AFAE9
:109D7000079ADBF80030D20752D5012D1FFA89F27D
:109D80003ED1012C3CD19B6906991F46049B0A4495
:109D90005146584612B2B84709F101034FFA83F908
:109DA000079B5B0807930A9B013B13F0FF030A9391
:109DB000DED1059F01377BB20593099B013B13F070
:109DC000FF030993B9D1049B43450FD0012DDBF864
:109DD00000303BD1012C39D10899CDF800800531F4
:109DE0001C6A32460823584609B2A0475846DBF899
:109DF0000030DB6A11B0BDEC028BBDE8F04F1847B4
:109E000014FB02F206990A44049901910094DB695B
:109E100018EE101A1F4658462B4612B2B847BBE739
:109E2000049A4245B8D0012D1FFA89F207D1012CBE
:109E300005D19B6906991F460A444346A8E714FBCF
:109E400002F20699CDF804800A44DFE70B9AE40099
:109E500002EB8201089ACDF804800A44114600946E
:109E6000DC6932462B46584609B2A047BEE7137A52
:109E70005168FF1A1268FFB20B9231F8372001EBDC
:109E8000C70306929A78012D0992DA7893F906A011
:109E90000C9293F905200A9201D8012C57D9BDF9EB
:109EA000283008930FFA8AF307934FF00008C14651
:109EB0004746DBF8003058465B699847B3B20E93CB
:109EC0001AFA86F30F930C9B9F428FD2079B0E9A30
:109ED0003B4403FB042300221BB208EE103A434626
:109EE00005920F9A02EB070A0FFA8AFA099A059966
:109EF000914241D25A1CD2B25B070D9207D1069B08
:109F000006990B9A01339BB212F80190069319F04F
:109F1000800F12D0012DDBF80030BDF80C101AD1E3
:109F2000012C18D10A9A9B691144059A1E461144C6
:109F300058465246049B09B2B047059E4FEA49096C
:109F40000136F3B205935FFA89F90D9BCEE7002342
:109F5000CDE90733A9E70598089A024402FB0511E9
:109F6000049A5846CDE90042DB6918EE102A1E46D5
:109F700009B22B46B047E0E7099B013798445FFAE6
:109F800088F8FFB29FE711B0BDEC028BBDE8F08FFF
:109F900040F73F02F0B5026A04460B4685B0002A3E
:109FA00034D10A2908D1438A0282427E03EBC203DC
:109FB0006382012005B0F0BD0D29FAD0E17E007E5C
:109FC000657E71B10621B4F9106011FB0061B4F92E
:109FD0000C60B142C1BFB4F91210228201EBC5027C
:109FE0006282E28ACDE902050192A28A20460092AD
:109FF000B4F91010B4F91220FFF75EFE237E228A16
:10A0000003EB430302EB43032382D2E70A2907D180
:10A0100000230382417E927A438A01FB0233C7E721
:10A020000D29C6D0157AA942C3D3517A9942C0D31B
:10A0300051685D1BEDB201EBC505A87828B3E9783E
:10A0400019B3E17E267E677E91B195F9051008442B
:10A05000B4F9101006FB0011B4F90C00814207DDC1
:10A0600000202082B4F91210927A02FB0712628259
:10A07000E28A20460192A28ACDE902670092B4F9F1
:10A080001010B4F91220FFF717FE2979227E238AD7
:10A0900001FB0233B8E7012938BF0121017641767F
:10A0A0007047036A29B113B9438A063343820162B8
:10A0B0007047002BFBD0438A063BF7E7002180B2B4
:10A0C00001F039BF012180B201F035BF002180B21B
:10A0D00001F031BF012180B201F02DBF002180B21B
:10A0E00001F029BF012180B201F025BF38B5044637
:10A0F00012B209B21D46FFF7C9FD00220B4B2046E4
:10A1000023609DF9183084F83C2084F83D309DF997
:10A110001030226484F83E309DF91430A4F84420B5
:10A1200084F83F30A264656238BD00BFA0FC3F02E6
:10A130002DE9F04104460D4616461F46DFF84C80D7
:10A1400086B0D8E88F0F10F001010BD14046059181
:10A15000FEF7D8FC059928B10B4801F017FC4046E2
:10A16000FEF7D5FC9DF93430324602939DF930302C
:10A170002946CDE900732046034BFFF7B7FF204681
:10A1800006B0BDE8F08100BF84AE071080AE0710B6
:10A19000F8B50446484F90F93E00002918BF0F4615
:10A1A0000028164609DB012180B201F0B3FE94F9C4
:10A1B0003E00012180B201F0BEFE94F93F00012172
:10A1C00080B201F0A7FE94F93F00012180B201F0B6
:10A1D000B2FE94F83C5085BB0123606A84F82C5091
:10A1E000276384F8343084F83560A66301F0D8FB27
:10A1F00094F93D0000285EDB012180B201F08AFE67
:10A2000094F93D00012180B201F095FE642001F037
:10A2100051F894F93D00002180B201F08CFE6420D9
:10A2200001F048F894F93D00012180B201F083FE6D
:10A23000BDE8F840C82001F03DB8012D20D194F9C7
:10A240002400294680B201F065FE94F92400002123
:10A2500080B201F070FE94F92600294680B201F028
:10A2600059FE94F92600002180B201F064FE94F9B1
:10A2700025000028BCDB002180B201F04BFEB7E7CF
:10A2800094F92500012180B201F044FE94F92500E3
:10A29000012180B201F04FFE94F926000028A7DBCF
:10A2A000012180B201F036FE94F92600012180B22E
:10A2B00001F041FE9CE7F8BD0024F40090F83C302A
:10A2C00023B900F12801406A01F098BB704710B52E
:10A2D0000446FFF7F3FF94F93E00002805DBBDE8D4
:10A2E0001040002180B201F026BE10BD90F83C3035
:10A2F00013B9406A01F068BB704710B5044690F985
:10A300003E00002803DB012180B201F014FE20464C
:10A31000FFF7ECFF10BD10B5044690F925000021B1
:10A3200080B201F008FE94F925000121BDE810403B
:10A3300080B201F000BE2DE9F04105460E461446FC
:10A340007AB190F83C304FEA1128CFB25BB9414660
:10A35000686A01F0C1FB3946686A01F0BDFB013C47
:10A36000F5D1BDE8F081012B1ED1B046102718F4BD
:10A37000004F95F9240014D0FFF7ACFE95F92600A4
:10A38000013FFFF79FFE4FEA480895F92600BFB24C
:10A39000FFF794FE1FFA88F8002FE8D1013CE4D1C2
:10A3A000DFE7FFF793FEE9E7B845DAD02846FFF785
:10A3B000B2FF013CFAD1D4E72DE9F3411D46044632
:10A3C000BDF82030BDF824600093036892B2D3F842
:10A3D000548089B2ABB2BDF92070C04731462046E7
:10A3E00005FB07F202B0BDE8F041FFF7A4BF2DE97D
:10A3F000F341BDF92040002B46D0002C44D0002B67
:10A4000005DA013111FA83F15B4209B21BB2B0F9EE
:10A410000C608E4238DD002C05DA013212FA84F22B
:10A42000644212B224B2B0F90E5095422CDD01EB19
:10A4300003081FFA88F808F1FF3C0FFA8CFCBCF106
:10A44000000F21DB02EB040E1FFA8EFE0EF1FF3728
:10A450003FB2002F18DB0029BCBF00210FFA88F3A0
:10A46000002ABCBF00220FFA8EF46645DCBF731AC7
:10A470001BB2BD42D8BFAC1ABDF82450D8BF24B21D
:10A48000CDE90045FFF798FF02B0BDE8F0812DE966
:10A49000F74380460C4615461E46BDF92870BDF8A8
:10A4A0002C90002B52D0002F50D0002B05DA013415
:10A4B00014FA83F45E4224B236B2B8F90C30A342E7
:10A4C00044DD002F05DA013515FA87F57F422DB2FC
:10A4D0003FB2B8F90E20AA4238DD04EB060E1FFA8F
:10A4E0008EFE0EF1FF3000B200282FDB05EB070CCB
:10A4F0001FFA8CFC0CF1FF3109B2002926DB002C7D
:10A50000BCBF00240FFA8EF6002DBCBF00250FFA49
:10A510008CF78342DCBF1B1B1EB28A42D8F8003086
:10A52000DCBF521B17B240465B6998473346404632
:10A530002A462146CDE90079FFF73EFF4046D8F88C
:10A540000030DB6A03B0BDE8F043184703B0BDE854
:10A55000F0832DE9F341171E06460C461D46BDF853
:10A56000208033DBB0F90E30BB422FDD002D2DD023
:10A5700005DA013414FA85F46D4224B22DB2B6F92D
:10A580000C30A34222DD611989B24A1E12B2002AA0
:10A590001CDB002CBCBF00240DB29342DCBF1B1B94
:10A5A0001DB2336830465B699847012330460093FB
:10A5B0003A462B462146CDF80480FFF7FDFE304693
:10A5C0003368DB6A02B0BDE8F041184702B0BDE86D
:10A5D000F0812DE9F3410F1E064614461D46BDF8D5
:10A5E000208031DBB0F90C30BB422DDD002D2BD0AB
:10A5F00005DA013414FA85F46D4224B22DB2B6F9AD
:10A600000E30A34220DD611989B24A1E12B2002A1F
:10A610001ADB002CBCBF00240DB29342DCBF1B1B15
:10A620001DB2336830465B699847304601232246A5
:10A630003946CDE90058FFF7BFFE30463368DB6A84
:10A6400002B0BDE8F041184702B0BDE8F081002A31
:10A6500073B526DBB0F90E40944222DD002B20D0EA
:10A6600005DA013111FA83F15B4209B21BB2B0F98C
:10A670000C408C4215DDCE18B6B2751E2DB2002DE1
:10A680000FDB0029BCBF002133B2AC42D8BF631A34
:10A69000BDF81840D8BF1BB2019401240094FFF705
:10A6A0008BFE02B070BD73B5002926DBB0F90C40FB
:10A6B0008C4222DD002B20D005DA013212FA83F21F
:10A6C0005B4212B21BB2B0F90E40944215DDD618AF
:10A6D000B6B2751E2DB2002D0FDB002ABCBF0022C2
:10A6E00033B2AC42D8BFA31ABDF81840D8BF1BB2D2
:10A6F000CDE900340123FFF75FFE02B070BD70B5F5
:10A7000090F83C3004460D4623B9BDE87040406ADD
:10A7100001F0E2B9012B18D108262B0694F9240088
:10A7200010D5FFF7D7FC94F92600FFF7CBFC013ECC
:10A7300094F92600FFF7C2FC6D0016F0FF06EDB29B
:10A74000EBD170BDFFF7C2FCEDE7FFF7E4FDF8E7E2
:10A7500013B5044690F93F000191FFF7BFFC204676
:10A760000199FFF7CCFF94F93F0002B0BDE810401B
:10A77000FFF7B8BC70B50D46036804465B6998479F
:10A7800055B194F844102046FFF7E2FF23682046B5
:10A79000BDE87040DB6A184794F84510F3E770B5E0
:10A7A00090F83C3005460C464BB9090A406A01F066
:10A7B00093F9686AE1B2BDE8704001F08DB9012BF0
:10A7C00018D11026230495F9240010D5FFF782FC38
:10A7D00095F92600FFF776FC013E95F92600FFF774
:10A7E0006DFC640016F0FF06A4B2EBD170BDFFF75C
:10A7F0006DFCEDE7FFF78FFDF8E7F7B5002904469C
:10A800001E4617DBB0F90C308B4213DD002A11DB3A
:10A81000B0F90E3093420DDD0123056800936F6D92
:10A8200092B289B2B8473146204603B0BDE8F04045
:10A83000FFF7B5BF03B0F0BD2DE9F3410D1E04468F
:10A8400016461F4620DBB0F90C30AB421CDD002A57
:10A850001ADBB0F90E30934216DD03685B69984746
:10A860000123226800932046D2F85480A9B2B2B2E4
:10A87000C04720463946FFF792FF20462368DB6A2F
:10A8800002B0BDE8F041184702B0BDE8F08170B5F4
:10A8900090F83C3004460D469BB9090E406A01F021
:10A8A0001BF9C5F30741606A01F016F9C5F30721EA
:10A8B000606A01F011F9606AE9B2BDE8704001F028
:10A8C0000BB9012B18D12026002D94F9240010DAA1
:10A8D000FFF700FC94F92600FFF7F4FB013E94F922
:10A8E0002600FFF7EBFB16F0FF064FEA4505EBD11C
:10A8F00070BDFFF7EBFBEDE7FFF70DFDF8E77047E5
:10A9000001F00301022970B50446817624D00329A1
:10A9100025D0012914BFC025A02590F84C3090F80F
:10A920004D2019BFA0F84030A0F84220A0F84020E8
:10A93000A0F84230236820465B69984720463621BC
:10A94000FFF706FF20462946FFF7D9FE2368204679
:10A95000BDE87040DB6A184700250564EAE700237C
:10A9600060250364E6E710B504465021FEF7BBF806
:10A97000204610BD10B5044600F09AF8014B204661
:10A98000236010BD24FD3F0270B504460025002160
:10A9900000F0E5F8074B2046E3600749A4F84C5067
:10A9A00000F09AF8236829462046BDE870401B6BEA
:10A9B000184700BF4001F000F8FC3F02704770B537
:10A9C00001F003010229044690F84C2090F84D3024
:10A9D000817620D0032924D0012917BFC025A025C6
:10A9E000A0F84020A0F8423004BFA0F84220A0F810
:10A9F0004030236820465B69984720463621FFF7A0
:10AA0000A7FE20462946FFF77AFE23682046BDE8C8
:10AA10007040DB6A18470025A0F84020A0F84230BB
:10AA2000E7E76025A0F84220A0F84030E1E7000009
:10AA3000064B0022002918BF0B4642F22101836415
:10AA4000A0F844101946FFF7A3BB00BF0024F40090
:10AA5000F8B50446B0F84070B0F84250BDF8186040
:10AA6000394413FA81F72A4416FA82F5013F47EA7E
:10AA70000147013D2A2145EA0245FFF769FE3946B3
:10AA80002046FFF704FF20462B21FFF761FE2946F1
:10AA90002046FFF7FCFE2046BDE8F8402C21FFF7DA
:10AAA00057BE10B504465021FEF71DF8204610BDD4
:10AAB00013B50446CDE900230B46A0228021FFF701
:10AAC00037FB044B204623600023A4F84C3002B02F
:10AAD00010BD00BF84FD3F022DE9F0470C4603681E
:10AAE00005465B69984714F8017B97B326462846CC
:10AAF00016F8021BFFF72CFE94F80190B24609F0FD
:10AB00007F084446013CE4B2FF2C05D028461AF8E1
:10AB1000011BFFF7F4FDF5E795F93E00012180B236
:10AB200001F009FA95F93E00002180B201F003FA24
:10AB300019F0800F06EB080408D016F8080001345D
:10AB4000FF2808BF4FF4FA7000F0B4FB013FFFB2DA
:10AB5000CBE72B682846BDE8F047DB6A184738B5D5
:10AB60000D46036800211B6D044698472DB1294608
:10AB70002046BDE83840FFF7AFBF38BD09B50448EF
:10AB80000068044B03441B685B6C029309BD000022
:10AB90005CAD07103000000009B504480068044BA4
:10ABA00003441B685B68029309BD00005CAD07109D
:10ABB0000000000009B504480068044B03441B680A
:10ABC000DB68029309BD00005CAD071000000000C7
:10ABD00009B504480068044B03441B685B69029391
:10ABE00009BD00005CAD07100000000009B5044875
:10ABF0000068044B03441B689B68029309BD000076
:10AC00005CAD07101400000009B504480068044B4F
:10AC100003441B68DB68029309BD00005CAD0710AC
:10AC20001400000009B504480068044B03441B6885
:10AC30001B69029309BD00005CAD07101400000001
:10AC400009B504480068044B03441B68DB680293A1
:10AC500009BD00005CAD07101000000009B50448F4
:10AC60000068044B03441B689B69029309BD000004
:10AC70005CAD07101000000009B504480068044BE3
:10AC800003441B68DB69029309BD00005CAD07103B
:10AC90001000000009B504480068044B03441B6819
:10ACA0001B6A029309BD00005CAD07101000000094
:10ACB00009B504480068044B03441B685B6A0293AF
:10ACC00009BD00005CAD07101000000009B5044884
:10ACD0000068044B03441B689B6A029309BD000093
:10ACE0005CAD07101000000009B504480068044B73
:10ACF00003441B68DB6A029309BD00005CAD0710CA
:10AD00001000000009B504480068044B03441B68A8
:10AD10001B6B029309BD00005CAD07101000000022
:10AD200009B504480068044B03441B685B6B02933D
:10AD300009BD00005CAD07101000000009B5044813
:10AD40000068044B03441B681B6C029309BD0000A0
:10AD50005CAD07101000000009B504480068044B02
:10AD600003441B681B6D029309BD00005CAD071016
:10AD70001000000009B504480068044B03441B6838
:10AD80005B69029309BD00005CAD07104C00000038
:10AD900009B504480068044B03441B689B68029390
:10ADA00009BD00005CAD07105000000009B5044863
:10ADB0000068044B03441B68DB68029309BD000074
:10ADC0005CAD07105000000009B504480068044B52
:10ADD00003441B681B68029309BD00005CAD0710AB
:10ADE0001800000009B504480068044B03441B68C0
:10ADF0005B69029309BD00005CAD071018000000FC
:10AE000009B504480068044B03441B68DB690293DE
:10AE100009BD00005CAD07101800000009B504482A
:10AE20000068044B03441B681B6A029309BD0000C1
:10AE30005CAD07101800000009B504480068044B19
:10AE400003441B685B6A029309BD00005CAD0710F8
:10AE50001800000009B504480068044B03441B684F
:10AE6000DB6B029309BD00005CAD07101800000009
:10AE700009B504480068044B03441B681B6C02932B
:10AE800009BD00005CAD07101800000009B50448BA
:10AE90000068044B03441B685B6C029309BD00000F
:10AEA0005CAD07101800000009B504480068044BA9
:10AEB00003441B68DB68029309BD00005CAD07100A
:10AEC0002400000009B504480068044B03441B68D3
:10AED0001B69029309BD00005CAD0710240000004F
:10AEE00009B504480068044B03441B685B6902937E
:10AEF00009BD00005CAD07102400000009B504483E
:10AF00000068044B03441B689B69029309BD000061
:10AF10005CAD07102400000009B504480068044B2C
:10AF200003441B68DB69029309BD00005CAD071098
:10AF30002400000009B504480068044B03441B6862
:10AF40001B6A029309BD00005CAD071024000000DD
:10AF500009B504480068044B03441B689B6A0293CC
:10AF600009BD00005CAD07102400000009B50448CD
:10AF70000068044B03441B681B6C029309BD00006E
:10AF80005CAD07102400000009B504480068044BBC
:10AF900003441B681B68029309BD00005CAD0710E9
:10AFA0003400000009B504480068044B03441B68E2
:10AFB0005B68029309BD00005CAD0710340000001F
:10AFC00009B504480068044B03441B681B690293DD
:10AFD00009BD00005CAD07103400000009B504484D
:10AFE0000068044B03441B685B69029309BD0000C1
:10AFF0005CAD07103400000009B504480068044B3C
:10B0000003441B689B69029309BD00005CAD0710F7
:10B010003400000009B504480068044B03441B6871
:10B02000DB69029309BD00005CAD0710340000002D
:10B0300009B504480068044B03441B681B6A02936B
:10B0400009BD00005CAD07103400000009B50448DC
:10B050000068044B03441B685B6B029309BD00004E
:10B060005CAD07104800000009B504480068044BB7
:10B0700003441B685B68029309BD00005CAD0710C8
:10B080000800000009B504480068044B03441B682D
:10B090005B69029309BD00005CAD07100800000069
:10B0A00009B504480068044B03441B68D3F8883092
:10B0B000029309BD5CAD07100800000009B5044803
:10B0C0000068044B03441B68D3F89430029309BD15
:10B0D0005CAD07100800000009B504480068044B87
:10B0E00003441B68DB6B029309BD00005CAD0710D5
:10B0F0002C00000009B504480068044B03441B6899
:10B100005B68029309BD00005CAD071028000000D9
:10B1100009B504480068044B03441B689B6802930C
:10B1200009BD00005CAD07102800000009B5044807
:10B130000068044B03441B68DB68029309BD0000F0
:10B140005CAD07102800000009B504480068044BF6
:10B1500003441B681B69029309BD00005CAD071026
:10B160002800000009B504480068044B03441B682C
:10B170005B69029309BD00005CAD07102800000068
:10B1800009B504480068044B03441B689B6902939B
:10B1900009BD00005CAD07102800000009B5044897
:10B1A0000068044B03441B68DB69029309BD00007F
:10B1B0005CAD07102800000009B504480068044B86
:10B1C00003441B681B6A029309BD00005CAD0710B5
:10B1D0002800000009B504480068044B03441B68BC
:10B1E0001B6B029309BD00005CAD07102800000036
:10B1F00009B504480068044B03441B685B6B029369
:10B2000009BD00005CAD07102800000009B5044826
:10B210000068044B03441B681B6C029309BD0000CB
:10B220005CAD07102800000009B504480068044B15
:10B2300003441B685B6C029309BD00005CAD071002
:10B240002800000009B504480068044B03441B684B
:10B250001B68029309BD00005CAD071004000000EC
:10B2600009B504480068044B03441B685B680293FB
:10B2700009BD00005CAD07100400000009B50448DA
:10B280000068044B03441B681B6C029309BD00005B
:10B290005CAD07100400000009B504480068044BC9
:10B2A00003441B685B6C029309BD00005CAD071092
:10B2B000040000000021FFF7E5BE00000023024863
:10B2C0000360FFF75BBC00BF8CAE07100022406834
:10B2D0001146FFF771BF002240681146FFF788BF93
:10B2E00000224068FFF776BF0022406881F001012C
:10B2F000FFF754BF002340681A461946FFF740BFC6
:10B30000002340681A461946FFF72CBF0022406808
:10B310001146FFF719BF002240681146FFF7F8BE3B
:10B32000002202214068FFF701BF002340681A464F
:10B33000FFF7E0BE0322024B5A60024A1A607047D0
:10B3400090AE0710E4FD3F027047F8B5064615467B
:10B350000C468F18BC4206D0336830469B6814F800
:10B36000011B9847F6E72846F8BD0022007CFFF74E
:10B3700091BC0021007CFFF79BBC0021007CFFF703
:10B38000A5BC0021007CFFF7AFBC0021007CFFF7CB
:10B39000B9BC10B504461421FDF7A5FB204610BD2D
:10B3A00038B5044615464FF47A730022C4E90123E8
:10B3B000094B0846217423602946FFF7BFFCBF30C4
:10B3C00008D16B69DB0705D56868FFF749FFE868B6
:10B3D000FFF746FF204638BD20FE3F020023007CD9
:10B3E0001A461946FFF72CBC7FB500221423CDE97D
:10B3F0000122ADF804300B78007C8DF808304B68E2
:10B400000393CB6804930B7A01A90593FFF7A4FC7F
:10B4100007B05DF804FB1FB5003B8DF800104FF03E
:10B42000640118BF01230391694601928DF8083029
:10B43000FFF7DAFF05B05DF804FB0123FFF7EBBF70
:10B440000022007CFFF70ABC0022007CFFF714BC3E
:10B450000121FFF7F9BF704710B504461821FDF729
:10B4600042FB204610BDF0B5037D0E46062B4FF083
:10B4700000048DB000F1040712D000F1080515F8A2
:10B48000011D0A22304600F064F9AF42044419D08D
:10B49000002CF4D02E21304600F03CF90444EEE7B5
:10B4A0002F236A4639460A208DF80040FFF762FCD8
:10B4B0006846FDF7F1FA3368024669463046DB68B4
:10B4C0009847044620460DB0F0BD000010B5044674
:10B4D000044B1122002140F8043B00F05AFE2046A4
:10B4E00010BD00BF48FE3F020346074A10B543F8AF
:10B4F000042B01F1100251F8044B914243F8044B24
:10B50000F9D10A781A7010BD48FE3F0210B59DF8B7
:10B51000084044EA032343EA0242042342EA016169
:10B520004160037510BD000007B5064B0360CB7882
:10B5300000938B784A780978FFF7E8FF03B05DF84D
:10B5400004FB00BF48FE3F02014B024A1A607047ED
:10B5500098AE071054FE3F02002340681A46FFF7DA
:10B56000C9BD002202214068FFF7E0BD002240680B
:10B570001146FFF7CDBD002240681146FFF7E4BD3C
:10B58000002340681A461946FFF7ECBD00234068C7
:10B590001A461946FFF7F4BD00214068FFF736BE92
:10B5A00000214068FFF740BE0022406881F00101A1
:10B5B000FFF7F4BD00224068FFF70CBE0022406890
:10B5C0001146FFF715BE002240681146FFF7F4BD93
:10B5D0002DE9F04395B014460D460746FFF776FF78
:10B5E00000211C220DA8009100F0D3FD402320462D
:10B5F0000C9300216B460CAAFFF7D8FB04460028E9
:10B600004BD1024601216868FFF79EFD022180466A
:10B6100022466868FFF798FD21468146009E002E6D
:10B620003BD0002939D17368022B03D00A2B11D0EB
:10B63000F669F4E7B8F1000FFAD0716906A8043191
:10B640003C1D07ADFFF770FF0FCD0FC42B684146BF
:10B650002370EDE7B9F1000FEAD0102201A8746958
:10B6600000F097FD062301AD8DF8143004F10803B6
:10B6700018342A4618685968083303C2A34215468D
:10B68000F7D101A906A83C1D07ADFFF72DFF0FCD8F
:10B690000FC42B6849462370CAE70098FFF778FB70
:10B6A000384615B0BDE8F083024B034A1A60002209
:10B6B0005A6070479CAE071060FE3F02F8B5064620
:10B6C0000D4600248F18BD420CD0336830469B686D
:10B6D00015F8011B9847031E01DB1C44F3E7002CFF
:10B6E00008BF1C462046F8BD13B50446084659B1AC
:10B6F0000191FDF7D1F90246204623680199DB68E4
:10B7000002B0BDE81040184702B010BD08B5FFF701
:10B71000EBFF08BD03689B68184708B5FFF7E4FF17
:10B7200008BD38B50D210546FFF7F4FF0A21044690
:10B730002846FFF7EFFF204438BD38B50546FFF730
:10B74000D3FF04462846FFF7ECFF204438BDFFF73F
:10B75000F4BF0023012A98BF0A2230B58BB08DF8C0
:10B76000243009AC0D46B1FBF2F101FB125303F09A
:10B77000FF03092B94BF30333733DBB2AA4204F8FE
:10B78000013DEFD92146FFF7AFFF0BB030BD000000
:10B790002DE9F74F55EC104B06460F4610EE102AD8
:10B7A0002B4610EE100A2946FDF7C8F840B1534960
:10B7B0003046FFF799FF8246504603B0BDE8F08F50
:10B7C00025F000494FF0FF32204649464C4BFDF72B
:10B7D000B5F848B94FF0FF3220464946484BFDF7CF
:10B7E0008FF808B94749E3E74FF060422046294601
:10B7F000454BFDF799F808B14449D9E74FF060424D
:10B8000020462946424BFDF771F80028F4D100226A
:10B81000002320462946FDF769F8D0B12D21304696
:10B82000FFF778FF05F1004382461D464FF0000BFD
:10B8300000204FF000083749DFF8E0905FFA8BF303
:10B840009F4208D942464B46FCF708FF0BF1010B1B
:10B85000F4E78246EAE722462B46FCF71FFC0D463A
:10B860000446FDF7A9F88046FCF754FD02460B4656
:10B8700020462946FCF710FC0A2204460D463046B5
:10B880004146FFF766FF8244002F95D0304622499B
:10B89000FFF72AFF4FF00008DFF880908244002F66
:10B8A0008AD042464B4620462946FCF7ADFD044669
:10B8B0000D46FDF759F8B0F1000B1CDA2D2130468A
:10B8C000FFF728FF0346CBF100010A22304601931F
:10B8D000FFF73FFF019B013F184482445846FCF7A5
:10B8E00029FD02460B4620462946FCF7D5FBFFB250
:10B8F00004460D46D3E759460023E6E794FE3F028F
:10B90000FFFFEF7F98FE3F02FFFFEF419CFE3F02EB
:10B91000FFFFEFC10000E03F0BCB3F0200002440DF
:10B9200038B5044610EE100ACDB2FCF715FD41EC17
:10B93000100B29462046BDE83840FFF729BF38B52F
:10B94000C9B20546FFF724FF04462846FFF7E9FE83
:10B95000204438BD38B5044610EE100A0D46FCF7F9
:10B96000FBFC41EC100B29462046BDE83840FFF7B0
:10B97000E6BF00000022014B9A607047A4AE07109A
:10B980000021FFF783BA0021FFF772BA10B5044611
:10B9900008462170FFF734FA00232046636010BD8B
:10B9A00013B504460078FFF7EEFF58B920784FF63C
:10B9B000FF710190FFF708FA019802B0BDE810404E
:10B9C000FFF7DEBF02B010BD0078FFF7D9BF00005F
:10B9D00030B50024400818601868E5B2884206D9DE
:10B9E0000134082C02D040081860F5E70725024B07
:10B9F0005B5D137030BD00BFA0FE3F022DE9F04338
:10BA000006468FB000780C46FFF7BDFF00281BDB11
:10BA10001422002109A8357800F0BBFB0B2300227B
:10BA2000284609A9ADF82430FFF706FA9DF82D3015
:10BA300013B19DF82C5055B100270125B946B846E1
:10BA400023795DB1C3B100200FB0BDE8F083DDF80C
:10BA500030809DF834909DF83570F1E7002B35D19A
:10BA6000A368434508D18DF820908DF82170BDF86A
:10BA70002020A3899A42E6D00023A1688DF80F30D8
:10BA80000A9804AB0DF10F02FFF7A2FF217985B9E7
:10BA900089B9A36843450ED38DF820908DF82170A5
:10BAA000BDF82020A3899A4205D1049B434502D1C9
:10BAB000C9E70029F9D100230193637B9DF80F208A
:10BAC0000093237B3078FFF7C5F9BCE72B462A4665
:10BAD0000121CDE90055F5E708B50078FFF782F9B7
:10BAE000C0B208BD02220020044B1A60044B054A74
:10BAF000C3E900009A60FFF7B7BA00BFC0AE0710F5
:10BB0000B4AE07100000FFFF024B1A68024B1A6028
:10BB1000704700BF68AD0710C4AE0710704741748E
:10BB2000704708B5007CFFF713FA20EAE07008BD03
:10BB300008B5007CFFF7C6F920EAE07008BD08B53B
:10BB4000007CFFF7DBF940EAE07008BD08B5007C37
:10BB5000FFF7C6F940EAE07008BD007CFFF7DCB9EA
:10BB600037B5457C04462DB1207C03B0BDE830409C
:10BB7000FFF79AB9007C0191FFF7EAF900280199D3
:10BB8000F2DC284603B030BD10B504461421FCF7A2
:10BB9000AAFF204610BD000010B54FF47A7304468A
:10BBA000084611460022C4E90123044B2074236097
:10BBB00001236374FFF7DAF9204610BDCCFE3F0283
:10BBC000007CFFF7B7B9417470477047704708B5FC
:10BBD0000021007CFFF710FA40EAE07008BD08B5CC
:10BBE0000121007CFFF708FA40EAE07008BD08B5C3
:10BBF000007CFFF7F3F920EAE07008BD08B5007C8F
:10BC0000FFF7DEF920EAE07008BD13B50446007CBA
:10BC10000191FFF7E3F90028019901DC607C20B174
:10BC2000207CFFF7F7F920EAE07002B010BD007C3D
:10BC3000FFF7FEB910B504461421FCF754FF204667
:10BC400010BD000010B54FF47A7304460846002179
:10BC5000C4E90113044B207423600123114663746B
:10BC6000FFF792F9204610BDFCFE3F020022007C47
:10BC7000FFF798B910B504461422002100F089FAA4
:10BC8000204610BD10B588B003A8FFF7F3FF0C4C99
:10BC9000D4E88F1F11F001010FD120460191FCF76C
:10BCA00031FF019948B103AA0648FFF7CBFF2046B0
:10BCB000FCF72DFF044800F059FA024808B010BD07
:10BCC000C8AE0710CCAE071063C33F020022406825
:10BCD0001146FFF739BA002240681146FFF76CBAE7
:10BCE000002240681146FFF783BA00224068FFF740
:10BCF00071BA0022406881F00101FFF74FBA0023BA
:10BD000040681A461946FFF73BBA002340681A46B6
:10BD10001946FFF727BA002240681146FFF7F8B925
:10BD2000002202214068FFF701BA002340681A464A
:10BD3000FFF7E0B90422024B5A60024A1A607047CA
:10BD4000E0AE07102CFF3F02014B1860704700BFA8
:10BD50006CAD071008B50F4B43B1FFF793FF0368B5
:10BD60001B699847002801DD00E000BF0A4B43B182
:10BD700000F06AF903681B699847002801DD00E0BC
:10BD800000BF064B0BB100F0A5F9054B0BB100F05D
:10BD9000D7F908BD0000000000000000000000000E
:10BDA0000000000008B5FFF7D5FFFEF711FF014BBB
:10BDB000186008BDF0AE07100548064A08B5121A0B
:10BDC000054900F0D9F9054B054A1A6008BD00BFC6
:10BDD00000B4071004B40710D8F85F0800B40710C7
:10BDE0001E1C279A002307B51A466FF077010093AF
:10BDF000FFF764F903B05DF804FB000007B5438862
:10BE00000A2B08D0502B0BD1094B1B684BB103B048
:10BE10005DF804EB1847FFF7E5FF03B05DF804FB9E
:10BE200000231A466FF077010093FFF747F9F4E714
:10BE3000ECAE0710002110B51148FFF72DFA114B99
:10BE40001A68114B9A420CBF012200220F4B1A7044
:10BE500001D0FFF7B1FFFEF79FFE044600F0A2F904
:10BE60000B4B13B1204600E000BF00210848FFF74C
:10BE700033F9BDE8104000210648FFF711B900BFB3
:10BE8000E1C43F0200B407101E1C279AE8AE071059
:10BE90000000000095C53F021B2837B5044602D9B3
:10BEA000002003B030BDA0F10F03022B0BD90128F5
:10BEB00021D800F075F80021007CFEF731FF80F0FA
:10BEC0000100C0B2EDE7114DD5E88F1F11F001015F
:10BED0000BD128460191FCF715FE019928B10C48B9
:10BEE000FFF754FD2846FCF712FE094B1878FEF7C1
:10BEF00095FF0028D4D1083C012C05D800F0A4F807
:10BF0000007CFFF717F8DAE70120CAE780AE0710D8
:10BF100084AE07101B2838B504460D460AD8FF2901
:10BF200008D0FFF7B9FF28B129462046BDE83840C0
:10BF3000FEF75CBE38BD38B504460D46FEF764FE1C
:10BF4000FF2810D0062804D84D2323FA00F0C30799
:10BF500009D42046FFF7A0FF28B129462046BDE8B6
:10BF60003840FEF75FBE38BD7047000038B50A4B59
:10BF700004460360012309494361202000F0F4F8DE
:10BF80002025606005492846A56000F0EDF8C4E969
:10BF90000305204638BD00BF1800010060FF3F02C6
:10BFA00030B50E4D87B0D5E88F1F11F0010411D1C7
:10BFB0002846FCF7A7FD68B16846FFF7D7FF6A4639
:10BFC00021460748FFF7ECF92846FCF7A0FD054895
:10BFD00000F0CCF8024807B030BD00BFF4AE071047
:10BFE000F8AE071001C73F027047000038B51425AE
:10BFF00004462A46002100F0CCF825804025074958
:10C0000028462581258200F0AFF804496060284663
:10C0100000F0AAF8E060204638BD00BF60FF3F0294
:10C020007047704710B50446FFF7E0FF204610BD8B
:10C0300010B50446FFF7DAFF204610BD10B50446E0
:10C04000FFF7D4FF204610BD30B50E4D87B0D5E8C0
:10C050008F1F11F0010411D12846FCF753FD68B180
:10C0600001A8FFF7DFFF214601AA0748FFF794FD6B
:10C070002846FCF74CFD054800F078F8024807B068
:10C0800030BD00BF0CAF071018AF071081C73F02CB
:10C0900010B50D4C86B0D4E88F3FDB0711D4204695
:10C0A000FCF730FD68B101A8FFF7C2FF012101AA2A
:10C0B0000648FFF771FD2046FCF729FD044800F013
:10C0C00055F8024806B010BD10AF07102CAF07108E
:10C0D000BBC73F0210B5FFF7DBFF074B044653B168
:10C0E000FFF76EFD38B1236820461B69984700288A
:10C0F00001DD00E000BF10BD0000000010B50D4CD8
:10C1000086B0D4E88F3FDB0711D42046FCF7FAFC59
:10C1100068B101A8FFF792FF022101AA0648FFF7C4
:10C120003BFD2046FCF7F3FC044800F01FF80248F2
:10C1300006B010BD14AF071040AF0710B9C73F02DB
:10C1400010B5FFF7DBFF074B044653B1FFF738FD8F
:10C1500038B1236820461B699847002801DD00E0BC
:10C1600000BF10BD00000000FCF7BBBC002301466F
:10C170001A46184600F044B80A44431E914200D1C2
:10C18000704710B511F8014B914203F8014FF9D1F6
:10C1900010BD02440346934200D1704703F8011BCF
:10C1A000F9E7000038B5104B04461D68AB6BB3B916
:10C1B0001820FFF747F80246A86320B90B4B42212D
:10C1C0000B48FFF75BF80B490B4BC0E900130B4B17
:10C1D000002183600B2383810120C2E90401AB6B42
:10C1E00000221C615A6138BD6CAD071061FF3F022F
:10C1F00078FF3F020E33CDAB34126DE6ECDE050066
:10C200002DE9F843DFF8BC8006461F460D46D8F8F6
:10C210000000914600F058F8264B1C6834B9264CB3
:10C220001C60264B13B11B68C4F8883063681F2B51
:10C2300007DDD8F8000000F049F84FF0FF30BDE806
:10C24000F8835EB3D4F8880088B91D4B23B9D8F8B9
:10C25000000000F03AF8F0E74FF48470FEF7F2FFC8
:10C260000028F4D00023C0E94033C4F88800636894
:10C270000122022E40F8239002FA03F200EB830120
:10C28000D0F8003143EA0203C0F80031C1F88070F1
:10C2900002BFD0F804311343C0F804316368D8F802
:10C2A00000005A1C0233626044F8235000F00EF87C
:10C2B0000020C4E7E0AF071054AF071000000000F3
:10C2C000DDB93F02D0AD07107047704770470000DE
:10C2D00041923F0269923F026D923F0200000000CE
:10C2E00043616C6C206F6E20707572652076697288
:10C2F0007475616C00560041004F2E562E20004F81
:10C300002E432E20005345543A20006B57005046D0
:10C31000203A005041203A00564152203A00414311
:10C32000533337383030204578616D706C6500418B
:10C3300043533337383030206E6F74206465746532
:10C34000637465642E20436865636B20636F6E6E53
:10C35000656374696F6E7320616E64204932432097
:10C36000616464726573732E20467265657A696EC6
:10C37000672E2E2E00566F6C74733A200020416D8C
:10C3800070733A2000506F7765723A204163746988
:10C390007665202857293A20002052656163746928
:10C3A00076652028564152293A2000506F776572F1
:10C3B0003A204170706172656E7420285641293AA6
:10C3C000200020506F77657220466163746F723A67
:10C3D0002000204C616767696E6700204C656164CE
:10C3E000696E670020436F6E73756D65640020474A
:10C3F000656E65726174656400000000B4D13F022F
:10C40000C4CB3F02207E160032D63F02BCCE3F0294
:10C41000207E1D00D4E33F02E4DD3F02207E1600B3
:10C42000A2E83F02DCE03F02207E1D000000000089
:10C43000050001000000020D0602F40004000504DE
:10C440000601F40007000A0C0A00F50016000910A6
:10C450000A01F3002800100D1001F40042000B0D3A
:10C460000C01F400540002040401F400550004110E
:10C470000601F4005E0004110601F40067000505E2
:10C480000701F4006B0006080B03F90071000204B9
:10C4900005020000720004010601FC0073000201A5
:10C4A000050100007400050D0500F4007D00080D75
:10C4B0000A01F4008A00040D0A03F4009100090D3A
:10C4C0000A01F400A000080D0A01F400AD00070DF8
:10C4D0000A02F400B900090D0A01F400C800090DB0
:10C4E0000A01F400D700080D0A00F400E400090D69
:10C4F0000A01F400F300080D0A01F4000001020A29
:10C500000501F7000301030C0501F8000801090902
:10C510000B01F800130109040B01FB0018010909C4
:10C520000B01F8002301090D0A01F400320111107A
:10C530001201F40054010C0D0C00F40068010B0D05
:10C540000C01F4007A010B0D0D01F4008C010B0DB0
:10C550000D01F4009E01090D0B01F400AD01080D61
:10C560000B01F400BA010C0D0E01F400CE010B0D0D
:10C570000D01F400E001020D0502F400E401070DD5
:10C580000A01F400F0010B0D0C01F4000202080D89
:10C590000A01F4000F020D0D0F01F40025020B0D2E
:10C5A0000D01F40037020D0D0E01F4004D020A0DCD
:10C5B0000C01F4005E020D0E0E01F40075020C0D6C
:10C5C0000D01F40089020A0D0C01F4009A02090D14
:10C5D0000B01F400A9020B0D0D01F400BB020B0DC1
:10C5E0000C00F400CD02110D1100F400E9020C0D55
:10C5F0000C00F400FD020C0D0C00F40011030A0DF8
:10C600000B01F400220303110501F4002903050DB9
:10C610000500F400320303110500F4003903070795
:10C620000801F40040030A010A0003004203040366
:10C630000500F4004403090A0A01F7005003090D3C
:10C640000A01F4005F03080A0901F7006903080DF5
:10C650000A01F4007603080A0A01F7008003040DBA
:10C660000501F4008703080E0A01F7009503080D81
:10C670000A01F400A203020D0401F400A603041150
:10C680000400F400AF03090D0901F400BE03020D1C
:10C690000401F400C2030D0A0F01F700D303080AD6
:10C6A0000A01F700DD03080A0A01F700E703090D94
:10C6B0000A01F700F603080D0A01F7000304050A52
:10C6C0000601F7000A04080A0901F7001404040C23
:10C6D0000501F5001A04080A0A01F7002404090AF2
:10C6E0000900F70030040D0A0D00F7004104080AA4
:10C6F0000900F7004B04090E0900F7005B04070A64
:10C700000901F700640404110601F4006D0402112C
:10C710000402F400720404110601F4007B04070310
:10C720000901F900000000000600010000000212EB
:10C730000803EF00050006060801F0000A000D10CE
:10C740000D00F10024000B140D01EF004000141146
:10C750001501F0006B000E111001F00089000206B7
:10C760000501F0008B0005170802EF009A0005177D
:10C770000801EF00A90007070901EF00B0000A0B4C
:10C780000E02F600BE0002060702FF00C00006020D
:10C790000801F900C20002020602FF00C3000712EE
:10C7A0000700EF00D3000B110D01F000EB000511A5
:10C7B0000D03F000F6000B110D01F0000E010B113E
:10C7C0000D01F00026010B110D01F0003E010B11CF
:10C7D0000D01F00056010B110D01F0006E010B115F
:10C7E0000D01F00086010B110D01F0009E010B11EF
:10C7F0000D01F000B601020D0602F400BA010210AC
:10C800000602F500BE010C0C0E01F500D0010C066D
:10C810000E01F800D9010C0C0E01F500EB010A1213
:10C820000D02EF00020216151801EF003C02101273
:10C830001000EF0060020D121002EF007E020F12D6
:10C840001101EF00A0020E121102EF00C0020C1243
:10C850000F02EF00DB020B120E02EF00F4021012C7
:10C860001201EF0018030D121102EF00360302123D
:10C870000702EF003B0309120D01EF0050030E12F7
:10C880001002EF0070030A120E02EF00870310126D
:10C890001402EF00AB030D121202EF00C9031112D4
:10C8A0001301EF00F0030C121002EF000B04111340
:10C8B0001301EF0034040E121102EF0054040E12A3
:10C8C0001001EF0074040C120F01EF008F040D1221
:10C8D0001102EF00AD040F120F00EF00CF0416128B
:10C8E0001600EF0001050F121000EF0023051012D3
:10C8F0001000EF0047050D120F01EF00650504174A
:10C900000702EF00710507120700EF008105041709
:10C910000701EF008D0509090B01F00098050F01D3
:10C920000DFF04009A0505040601EF009D050C0D9E
:10C930000D01F400B1050C120D01EF00CC050A0D3C
:10C940000C01F400DD050B120D01EF00F6050B0DD7
:10C950000D01F400080605120701EF0014060B1282
:10C960000D01F4002D060A120D01EF00440602121B
:10C970000502EF00490604170600EF0055060B12EA
:10C980000C01EF006E0602120501EF007306110D97
:10C990001301F4008F060A0D0D01F400A0060B0D23
:10C9A0000D01F400B2060C110D01F400CC060B11C0
:10C9B0000D01F400E406060D0801F400EE060A0D70
:10C9C0000C01F400FF0605100701F10009070A0D2C
:10C9D0000D01F4001A070C0D0C00F4002E07110DC8
:10C9E0001100F4004A070B0D0B00F4005C070B125A
:10C9F0000B00F40075070A0D0C01F40086070517FB
:10CA00000801EF00950702170602EF009B070517C4
:10CA10000802EF00AA070A050C01F600FFFFF8C0A4
:10CA2000DEF72009864191FF1304C320C8FF8982E5
:10CA30006190101F14DA3D1E8340781708F47A3590
:10CA400033F040203810EC20C620C640C6406C8031
:10CA50003900013C0277026304630477083C0E0648
:10CA600060CC1981E0180F0336C2D8730631E3C4D5
:10CA7000FE13266CCCCCC46623108C466333333251
:10CA8000664C80257EA50030C33F30C30CD6F0C075
:10CA90000844211084421108003C6642C3C3C3C34A
:10CAA000C3C3C342663C113F33333333303E31B0EE
:10CAB0007830181C1C1C1818100807F83C66C3C3F3
:10CAC00003061C0703C3C3663C0C187162C9A34666
:10CAD000FE183060C07F2010080807F38C03018027
:10CAE000F06C63E01E3198780C06F38D83C1E0D0C2
:10CAF0006C63E0FF030206040C08181818103030AD
:10CB00003E31B0783C1B18F8C6C1E0F06C63E03CE5
:10CB100066C2C3C3C3673B0303C2663CC00030C0E8
:10CB2000000064A00081C78E0C0780700E0180FF9A
:10CB300080001FF000700E01C0183871C080003EE8
:10CB400031B0783018183818180C0000018003F044
:10CB5000060E06018600661DBB31CF18C79863CC50
:10CB600031E611B399CCF7860001800070400FE0E8
:10CB70000600F00F009019819810830C3FC20460EA
:10CB80006606C030FF183303606C0D833FC606C0D5
:10CB9000780F01E06FF81F861981A03C01803006F4
:10CBA00000C0680D831861F0FF183303603C0780F4
:10CBB000F01E03C0780F0360CFF0FFE030180C06C2
:10CBC00003FD80C06030180FF8FFC0C0C0C0C0FEB9
:10CBD000C0C0C0C0C0C00F830E606603C00C00C1DF
:10CBE000FC03C0360360730F0F10C0780F01E03CE8
:10CBF0000780FFFE03C0780F01E03C06FFFFFFC087
:10CC0000060C183060C183078F1E2780C0D8330CF4
:10CC1000630CC1B83F0730C3186306606C0CC0C01A
:10CC2000C0C0C0C0C0C0C0C0C0C0FFE03F01FC1F4A
:10CC3000E0FD05EC6F637913CD9E6CF1478E3C717E
:10CC400080E07C0FC1E83D8798F11E33C3786F0701
:10CC5000E07C0E0F8183180CC06C01E00F0078039C
:10CC6000C01B01980C60C0F800FF306C0F03C0F0CF
:10CC70006FF300C0300C0300C0000F8183180CC09C
:10CC80006C01E00F007803C01B01986C60C0FB00D2
:10CC900008FF8C0EC06C06C06C0CFF8C0EC06C06BE
:10CCA000C06C06C0703F186C0F03C01E01F00E0070
:10CCB000F03C0D863F00FF86030180C06030180CF9
:10CCC00006030180C0C0780F01E03C0780F01E031E
:10CCD000C0780F01B061F0C06C0D8110630C61046D
:10CCE00060CC1901603C070060C18130E19870CCD4
:10CCF000286626211330C8986C4C14340A1A07078A
:10CD0000030380818060630C30C1980F00E006004F
:10CD1000F019019830C60E6060C0360630C30C1999
:10CD200081D80F00600600600600600600FFC0604A
:10CD3000300C060301C0603018060300FFC0FB6D15
:10CD4000B6DB6DB6E0841084108410841080EDB6DC
:10CD5000DB6DB6DBE03060A244D8A180FFC0C630F6
:10CD60007E71B0C060F3DB0D86C73DC0C060301B74
:10CD7000CE360F0783C1E0F07C6DE03C66C3C0C0D7
:10CD8000C0C0C3663C0303033B67C3C3C3C3C3C381
:10CD9000673B3C66C3C3FFC0C0C3663C366F666674
:10CDA0006666603B67C3C3C3C3C3C3673B0303C6B5
:10CDB0007CC0C0C0DEE3C3C3C3C3C3C3C3C3C3FF1C
:10CDC000FFC03003333333333333E0C06030184CAB
:10CDD000466361F0EC6231986C30FFFFFFC0DEF714
:10CDE0001CF0C7863C31E18F0C7863C31E18C0DE8F
:10CDF000E3C3C3C3C3C3C3C3C33C66C3C3C3C3C3C7
:10CE0000C3663CDE71B0783C1E0F0783E36F3018B9
:10CE10000C003B67C3C3C3C3C3C3673B030303DF48
:10CE2000318C6318C6003EE3C0C0E03C07C3E37E1C
:10CE300066F666666667C3C3C3C3C3C3C3C3C77BA3
:10CE4000C1A098CC4221B0D0281C0C00C61E38913D
:10CE5000C4CA66D316D0A6871C38C0C60043623643
:10CE60001C181C3C266243C12198CC4261B0D038CA
:10CE70001C0C0603010300FE0C30C1861820C1FC07
:10CE80003666666ECE66666630FFFFFFFFC0C6661A
:10CE9000666737666666C0612438FFFFFFF0F0CF33
:10CEA0003CF38A20063031031818C7FFBFFC31035A
:10CEB0001818C7FFBFFC31011818C0C6063004039C
:10CEC000E1FF726C4788F107207E03F017023C47B0
:10CED00088F11B267FC3E0100200000603C0407EDD
:10CEE0000C0E7080C3180C3100E73007E6003C40A0
:10CEF000000C7C008FE019C70118303183021C70D0
:10CF000040FE0407C00F007E039C0C3030C0E701D8
:10CF1000F803803E01CC6E19B07CC0F303CE1F9F96
:10CF2000E61E1CFFA0088C663198C6318C6308632E
:10CF300008610C208218C318C318C6318C6231886E
:10CF4000C4620010235BE38D91000C0300C030FF2E
:10CF5000FFF0C0300C0300C0F560FFF0F0020C10D1
:10CF600020C1020C1020C1020C1020C1001F07F1CB
:10CF7000C7306E0F80F01E03C0780F01E03C0EC179
:10CF80009C71FC1F0008CFFF8C6318C6318C63189E
:10CF90001F0FF987607C0600C0180701C0F0781CDD
:10CFA0000600803007FFFFE03F0FF387606C0C0145
:10CFB00080707C0F801801803C0780D873FC1F00B4
:10CFC0000180700E03C0D81B06618C218C33067F54
:10CFD000FFFE0300600C01803FCFF980300600DEC9
:10CFE0001FE70E00E00C0180300781F873FC1F0082
:10CFF0000F07F9C33074018033C7FEF0DC1F01E076
:10D000003C06C1DC71FC1F00FFFFFC010060180240
:10D0100000C03006018030040180300601803000FD
:10D020001F07F1C730660CC18C61FC3F8E3B01E0ED
:10D030003C0780D831FC1F001F07F1C7706C0780C8
:10D04000F01E0761EFFC79803005819873FC1E00AB
:10D05000F00003C0F0000F5600000701E0F83C0F9D
:10D0600000E007C00F003C00F001FFFFFF000000E0
:10D07000FFFFFF000E007801F007C00F00701E0FC9
:10D0800003C0F008001F1FEE1B03C0C0300C0603D6
:10D0900081C0E0300C030000000C030000FE000F14
:10D0A000FE00F03E07003C380030C1E0660FD9D8E2
:10D0B00061C3C3070F1C1C3C6060F18183C6061B63
:10D0C0001838EE71E718FDF871E7C0E00001E000E4
:10D0D00001FFC001FC0003C003C003C007E00660FD
:10D0E00006600E700C300C301C3818181FF83FFC0E
:10D0F000301C300C700E60066006FFC7FF301980D0
:10D100006C03601B00D80CFFC7FF300D803C01E0B2
:10D110000F007806FFF7FE0007E03FF0E07380663F
:10D12000006C0030006000C00180030006000600B3
:10D130006C00DC031E0E1FF80FC0FF83FF8C07304E
:10D140000EC01B007C00F003C00F003C00F003C0C9
:10D150001F006C03B01CFFE3FF00FFFFFFC00C00CB
:10D16000C00C00C00C00FFEFFEC00C00C00C00C0E3
:10D170000C00FFFFFFFFFFFF00600C018030060086
:10D18000FFDFFB00600C0180300600C0180007F0D4
:10D190001FFC3C1E70066003E000C000C000C07FA2
:10D1A000C07FC003C00360036007300F3C1F1FFB3C
:10D1B00007E1C01E00F007803C01E00F007803FF8C
:10D1C000FFFFF007803C01E00F007803C01E00C0A5
:10D1D000FFFFFFFFF00180C06030180C06030180E4
:10D1E000C0603C1E0F07C77F1F00C03B01CC0E3044
:10D1F00070C3831C0CE03380DE03DC0E383060C16A
:10D20000C3038C06301CC03B0060C0300C0300C060
:10D21000300C0300C0300C0300C0300C0300FFFFD3
:10D22000F0E007E007F00FF00FD00FD81BD81BD8A5
:10D230001BCC33CC33CC33C663C663C663C3C3C312
:10D24000C3C3C3C183E01F00FC07E03D81EE0F3084
:10D2500079C3C61E18F0E7833C1DE06F01F80FC0CC
:10D260003E01C003E00FFC0F078600C60033001B21
:10D2700000078003C001E000F000780036003300B2
:10D2800018C018783C1FFC03F800FF8FFEC06C0329
:10D29000C03C03C03C07FFEFFCC00C00C00C00C04A
:10D2A0000C00C00C0003E00FFC0F078600C6003323
:10D2B000001B00078003C001E000F000780036008A
:10D2C000330198C0FC783C1FFF03F9800040FFC386
:10D2D000FFCC03B006C01B006C01B00CFFE3FFCC19
:10D2E00003B006C01B006C01B006C01B00700FE04D
:10D2F0007FC3839C07600D8006001E003F803FC0F7
:10D300000F8007C00F003E00DE0E3FF03F80FFFFA2
:10D31000FF06006006006006006006006006006010
:10D32000060060060060060060C01E00F007803C3A
:10D3300001E00F007803C01E00F007803C01E00F01
:10D3400080EE0E3FE07C006006C01DC031806301AE
:10D35000C70306060C1C1C30186031C07300660041
:10D36000DC01F001E003C00700E0301D80E076073B
:10D3700081D81E06707C18C1B0E30CC38C330C3806
:10D38000C6306718C198670661D81D83603C0D8060
:10D39000F03E03C0700F01C0180700700E6038E047
:10D3A00060E1C0C301CC01F801E0038007801F00E9
:10D3B0003300E70386060E1C0E700CC01C6006705E
:10D3C0000E301C38181C380C300E70066003C00379
:10D3D000C001800180018001800180018001800105
:10D3E00080FFFFFFC00E00E00E0060070070070026
:10D3F0003003803803801801C01C00FFFFFFC0FF0E
:10D40000CCCCCCCCCCCCCCCCCCCFF0818102060423
:10D410000818102060408181020604FF3333333343
:10D4200033333333333FF00C0E0586C321198C831D
:10D43000C180FFFEE38C303F07F8E1CC0C00C01C3C
:10D440003FCF8CC0CC0CE3C7EF3C70C00C00C00CCD
:10D4500000C00CF8DFCF0EE07C03C03C03C03C03EF
:10D46000E06F0EDFCCF81F0FE71B83C0300C03000A
:10D47000C038371CFE1F0000600C018030063CCF16
:10D48000FB8FE0F80F01E03C0780F83B8F3F63CC57
:10D490001F07F1C7703C07FFFFFE00C01C0DC31F34
:10D4A000E1F03BD8C67FEC6318C6318C63001E6781
:10D4B000FDC7F07C0780F01E03C07C1DC79FB1E64E
:10D4C00000C03E0E7FC7E0C0300C0300C033CDFB70
:10D4D000C7E0F03C0F03C0F03C0F03C0F030F03F5A
:10D4E000FFFFF0330003333333333333333FE0C0D4
:10D4F000180300600C018330C630CC1B83F0770C1E
:10D50000618E30E60CC1D818FFFFFFFFF0CF1F6F10
:10D51000DFFC78FC183C0C1E060F03078183C0C19A
:10D52000E060F03078183C0C18CF37EF1F83C0F064
:10D530003C0F03C0F03C0F03C0C01F07F1C7707C55
:10D540000780F01E03C07C1DC71FC1F0CF8DFCF00B
:10D55000EE06C03C03C03C03C03E07F0EFFCCF8C9E
:10D5600000C00C00C0001E67FDC7F07C0780F01EE5
:10D5700003C07C1DC79FF1E600C018030060CF7F89
:10D5800038C30C30C30C30C03E1FEE1B00C03C073C
:10D59000F03E01F03E1DFE3E006319FFB18C6318A2
:10D5A000C631E7C0F03C0F03C0F03C0F03C0F07E73
:10D5B0003DFB3CC0E0660660670C30C30C398198C7
:10D5C0001981F00F00E00E00C1C1B0E1D870CC2C81
:10D5D0006636319B18CD98646C16360F1A078F0388
:10D5E0008380C1C060EE18C60CC1F01C0180781B9E
:10D5F0000330C7306606E06C0D8338630C630E6041
:10D60000CC1B03603C0700E0180300E0780E00FF2D
:10D61000FFF0180C070381C06030180E03FFFFC035
:10D6200019CC6318C631998618C6318C631C60FF0B
:10D63000FFFFFFFFFCC718C6318C630C33318C63CE
:10D6400018C67300703E09E41F038000000000004C
:10D65000050001000000030D0602F40005000705A7
:10D660000901F4000A000A0C0A00F5001900090F6C
:10D670000A01F3002A00100D1000F40044000C0D04
:10D680000D01F400580003050501F4005A000611CD
:10D690000601F400670006110600F4007400050698
:10D6A0000701F400780007080B02F9007F0003056A
:10D6B0000401FF00810005020600FB008300030255
:10D6C0000401FF008400050D0500F4008D00090D24
:10D6D0000A01F4009C00050D0A02F400A500090DE2
:10D6E0000A01F400B400080D0A01F400C100080D9D
:10D6F0000A02F400CE00090D0A01F400DD00090D54
:10D700000A01F400EC00090D0A00F400FB000A0D08
:10D710000A00F4000C01090D0A01F4001B010309C1
:10D720000401F8001F01030C0401F8002401090999
:10D730000B01F8002F0109060B01FA003601090957
:10D740000B01F8004101090D0B01F4005001100F0D
:10D750001200F4006E010C0D0D00F40082010B0D9F
:10D760000D01F40094010C0D0D01F400A8010C0D45
:10D770000D01F400BC01090D0C01F400CB01090DF1
:10D780000B01F400DA010B0D0E01F400EC010B0D9E
:10D790000D01F400FE01030D0601F4000302080D63
:10D7A0000A01F40010020C0D0D01F4002402080D12
:10D7B0000B01F40031020E0D1001F40048020B0DB4
:10D7C0000E01F4005A020D0D0E01F40070020B0D53
:10D7D0000C01F40082020D0E0E01F40099020C0DF2
:10D7E0000D01F400AD020B0D0C01F400BF02090D98
:10D7F0000C02F400CE020B0D0D01F400E0020C0D42
:10D800000C00F400F402110D1100F40010030C0DD3
:10D810000C00F40024030B0D0C01F4003603090D79
:10D820000B01F400450304110601F4004E03050D3D
:10D830000500F400570304110600F4006003080813
:10D840000B01F40068030A010A0004006A030302E2
:10D850000500F4006B030A0A0A01F70078030A0DB9
:10D860000B01F4008903090A0A01F7009503090D69
:10D870000B01F400A403090A0A01F700B003050D27
:10D880000601F400B903090E0B01F700C903090DE5
:10D890000B01F400D803030D0501F400DD030411AE
:10D8A0000500F400E603090D0A01F400F503030D79
:10D8B0000501F400FA030E0A1001F7000C04090A2E
:10D8C0000B01F70018040A0A0B01F70025040A0EE1
:10D8D0000B01F7003704090E0B01F7004704060A95
:10D8E0000701F7004F04090A0A01F7005B04050C61
:10D8F0000601F5006304090A0B01F7006F040A0A28
:10D900000A00F7007C040E0A0E00F7008E040A0AD3
:10D910000A00F7009B040A0E0A00F700AD04080A8B
:10D920000901F700B70404110701F400C004011154
:10D930000502F400C30404110702F400CC04080239
:10D940000900FC00000000000700010000000411B5
:10D950000803F00009000A060B01EF0011000D108A
:10D960000D00F1002B000D140D00EF004C00131101
:10D970001501F000750010111101F0009700040668
:10D980000601EF009A0006160801EF00AB0006162C
:10D990000801EF00BC0007080901EF00C3000B0BF2
:10D9A0000E02F600D30004070601FE00D7000603AE
:10D9B0000801F900DA0004030601FE00DC0006118C
:10D9C0000700F000E9000C110D01F0000301071140
:10D9D0000E03F00012010C110D01F0002C010C11CE
:10D9E0000D01F00046010B110D01F0005E010C115C
:10D9F0000D01F00078010C110D01F00092010B11E6
:10DA00000D01F000AA010C110D01F000C4010C1170
:10DA10000D01F000DE01040C0601F500E401041024
:10DA20000601F500EC010C0C0E01F500FE010C09DD
:10DA30000E01F7000C020C0C0E01F5001E020C1278
:10DA40000F02EF00390215151701EF0071021012D5
:10DA50001100EF0095020E121102EF00B502101234
:10DA60001101EF00D9020F121102EF00FB020D129B
:10DA70001002EF0019030C120F02EF003403101212
:10DA80001201EF0058030E121202EF007803041285
:10DA90000702EF0081030B120E01EF009A03101230
:10DAA0001102EF00BE030B120F02EF00D703111299
:10DAB0001502EF00FE030F121202EF0020041112F4
:10DAC0001301EF0047040E121002EF006704111358
:10DAD0001301EF00900410121102EF00B4040F12B2
